:020000040800F2
:100000000050002059410008D13D0008D33D0008B0
:10001000D53D0008D73D0008D93D0008000000008C
:10002000000000000000000000000000DB3D0008B0
:10003000DD3D000800000000DF3D0008E13D000854
:10004000A1410008A1410008A1410008A141000808
:10005000A1410008A1410008A1410008A1410008F8
:10006000A1410008A1410008A1410008F13D00089C
:10007000A1410008A1410008A1410008A1410008D8
:10008000A1410008A1410008FD3D0008A141000870
:10009000A1410008A1410008A1410008A1410008B8
:1000A000A1410008153E0008A1410008093E0008D2
:1000B000193E0008253E0008A1410008A1410008A2
:1000C000A1410008A1410008A1410008313E0008FB
:1000D000A1410008A1410008A1410008A141000878
:1000E000A1410008A1410008A14100080000000052
:1000F0000000000000000000000000000000000000
:0C01000000000000000000005FF808F1A3
:1001100010B5054C237833B9044B13B10448AFF341
:1001200000800123237010BD10000020000000009B
:10013000EC41000808B5034B1BB103490348AFF37A
:10014000008008BD0000000014000020EC41000801
:1001500081F0004102E000BF83F0004330B54FEA78
:1001600041044FEA430594EA050F08BF90EA020FE5
:100170001FBF54EA000C55EA020C7FEA645C7FEA78
:10018000655C00F0E2804FEA5454D4EB5555B8BF9B
:100190006D420CDD2C4480EA020281EA030382EA0C
:1001A000000083EA010180EA020281EA0303362D9E
:1001B00088BF30BD11F0004F4FEA01314FF4801C71
:1001C0004CEA113102D0404261EB410113F0004F83
:1001D0004FEA03334CEA133302D0524263EB43033A
:1001E00094EA050F00F0A780A4F10104D5F1200ED8
:1001F0000DDB02FA0EFC22FA05F2801841F1000133
:1002000003FA0EF2801843FA05F359410EE0A5F106
:1002100020050EF1200E012A03FA0EFC28BF4CF037
:10022000020C43FA05F3C01851EBE37101F00045ED
:1002300007D54FF0000EDCF1000C7EEB00006EEBFA
:100240000101B1F5801F1BD3B1F5001F0CD3490884
:100250005FEA30004FEA3C0C04F101044FEA4452DB
:1002600012F5800F80F09A80BCF1004F08BF5FEA62
:10027000500C50F1000041EB045141EA050130BD42
:100280005FEA4C0C404141EB010111F4801FA4F1E5
:100290000104E9D191F0000F04BF01460020B1FA3A
:1002A00081F308BF2033A3F10B03B3F120020CDA72
:1002B0000C3208DD02F1140CC2F10C0201FA0CF050
:1002C00021FA02F10CE002F11402D8BFC2F1200CB5
:1002D00001FA02F120FA0CFCDCBF41EA0C0190406B
:1002E000E41AA2BF01EB0451294330BD6FEA0404B4
:1002F0001F3C1CDA0C340EDC04F11404C4F120029F
:1003000020FA04F001FA02F340EA030021FA04F3B0
:1003100045EA030130BDC4F10C04C4F1200220FA07
:1003200002F001FA04F340EA0300294630BD21FA45
:1003300004F0294630BD94F0000F83F4801306BF0B
:1003400081F480110134013D4EE77FEA645C18BFFF
:100350007FEA655C29D094EA050F08BF90EA020F96
:1003600005D054EA000C04BF1946104630BD91EA8E
:10037000030F1EBF0021002030BD5FEA545C05D191
:100380004000494128BF41F0004130BD14F58004D0
:100390003CBF01F5801130BD01F0004545F0FE4144
:1003A00041F470014FF0000030BD7FEA645C1ABF79
:1003B000194610467FEA655C1CBF0B46024650EAB0
:1003C000013406BF52EA033591EA030F41F40021DC
:1003D00030BD00BF90F0000F04BF0021704730B562
:1003E0004FF4806404F132044FF000054FF0000137
:1003F00050E700BF90F0000F04BF0021704730B5F8
:100400004FF4806404F1320410F0004548BF4042CC
:100410004FF000013EE700BF42004FEAE2014FEA21
:1004200031014FEA02701FBF12F07F4393F07F4FFC
:1004300081F06051704792F0000F14BF93F07F4F2E
:10044000704730B54FF4607401F0004521F0004171
:1004500020E700BF50EA010208BF704730B54FF0F7
:1004600000050AE050EA010208BF704730B511F0FC
:10047000004502D5404261EB41014FF4806404F134
:1004800032045FEA915C3FF4DCAE4FF003025FEAB6
:10049000DC0C18BF03325FEADC0C18BF033202EB3E
:1004A000DC02C2F1200300FA03FC20FA02F001FA98
:1004B00003FE40EA0E0021FA02F11444C1E600BF37
:1004C00070B54FF0FF0C4CF4E06C1CEA11541DBFEA
:1004D0001CEA135594EA0C0F95EA0C0F00F0DEF8B5
:1004E0002C4481EA030621EA4C5123EA4C5350EA9A
:1004F000013518BF52EA033541F4801143F48013EB
:1005000038D0A0FB02CE4FF00005E1FB02E506F07B
:100510000042E0FB03E54FF00006E1FB03569CF0D0
:10052000000F18BF4EF0010EA4F1FF04B6F5007FD6
:1005300064F5407404D25FEA4E0E6D4146EB060648
:1005400042EAC62141EA55514FEAC52040EA5E50D1
:100550004FEACE2EB4F1FD0C88BFBCF5E06F1ED87B
:10056000BEF1004F08BF5FEA500E50F1000041EBB2
:10057000045170BD06F0004646EA010140EA02005F
:1005800081EA0301B4EB5C04C2BFD4EB0C0541EA81
:10059000045170BD41F480114FF0000E013C00F396
:1005A000AB8014F1360FDEBF002001F0004170BDBA
:1005B000C4F10004203C35DA0C341BDC04F11404D3
:1005C000C4F1200500FA05F320FA04F001FA05F25F
:1005D00040EA020001F0004221F0004110EBD3702C
:1005E00021FA04F642EB06015EEA430E08BF20EA58
:1005F000D37070BDC4F10C04C4F1200500FA04F3FB
:1006000020FA05F001FA04F240EA020001F000418C
:1006100010EBD37041F100015EEA430E08BF20EAFF
:10062000D37070BDC4F1200500FA05F24EEA020E47
:1006300020FA04F301FA05F243EA020321FA04F076
:1006400001F0004121FA04F220EA020000EBD3702D
:100650005EEA430E08BF20EAD37070BD94F0000F2D
:100660000FD101F00046400041EB010111F4801F61
:1006700008BF013CF7D041EA060195F0000F18BF12
:10068000704703F00046520043EB030313F4801F4E
:1006900008BF013DF7D043EA0603704794EA0C0F08
:1006A0000CEA135518BF95EA0C0F0CD050EA41061E
:1006B00018BF52EA4306D1D181EA030101F000419B
:1006C0004FF0000070BD50EA410606BF10461946C3
:1006D00052EA430619D094EA0C0F02D150EA0136CF
:1006E00013D195EA0C0F05D152EA03361CBF104610
:1006F00019460AD181EA030101F0004141F0FE41AF
:1007000041F470014FF0000070BD41F0FE4141F432
:10071000780170BD70B54FF0FF0C4CF4E06C1CEA32
:1007200011541DBF1CEA135594EA0C0F95EA0C0FE7
:1007300000F0A7F8A4EB050481EA030E52EA0335A2
:100740004FEA013100F088804FEA03334FF08055C3
:1007500045EA131343EA12634FEA022245EA1115F0
:1007600045EA10654FEA00260EF000419D4208BFA1
:10077000964244F1FD0404F5407402D25B084FEA4E
:100780003202B61A65EB03055B084FEA32024FF4FA
:1007900080104FF4002CB6EB020E75EB030E22BF57
:1007A000B61A754640EA0C005B084FEA3202B6EB17
:1007B000020E75EB030E22BFB61A754640EA5C00C6
:1007C0005B084FEA3202B6EB020E75EB030E22BF56
:1007D000B61A754640EA9C005B084FEA3202B6EB57
:1007E000020E75EB030E22BFB61A754640EADC0016
:1007F00055EA060E18D04FEA051545EA16754FEA78
:1008000006164FEAC30343EA52734FEAC2025FEA95
:100810001C1CC0D111F4801F0BD141EA00014FF024
:1008200000004FF0004CB6E711F4801F04BF0143F5
:100830000020B4F1FD0C88BFBCF5E06F3FF6AFAE11
:10084000B5EB030C04BFB6EB020C5FEA500C50F1A1
:10085000000041EB045170BD0EF0004E4EEA113124
:1008600014EB5C04C2BFD4EB0C0541EA045170BD2B
:1008700041F480114FF0000E013C90E645EA060E6F
:100880008DE60CEA135594EA0C0F08BF95EA0C0F9D
:100890003FF43BAF94EA0C0F0AD150EA01347FF4E5
:1008A00034AF95EA0C0F7FF425AF104619462CE7BC
:1008B00095EA0C0F06D152EA03353FF4FDAE10461F
:1008C000194622E750EA410618BF52EA43067FF470
:1008D000C5AE50EA41047FF40DAF52EA43057FF400
:1008E000EBAE12E74A0011D212F5001211D20DD56B
:1008F0006FF47873B3EB62520ED44FEAC12343F026
:10090000004343EA505323FA02F070474FF00000CF
:10091000704750EA013002D14FF0FF3070474FF07E
:100920000000704780F0004002E000BF81F000410D
:1009300042001FBF5FEA410392EA030F7FEA226C85
:100940007FEA236C6AD04FEA1262D2EB1363C1BF15
:10095000D218414048404140B8BF5B42192B88BF84
:10096000704710F0004F40F4000020F07F4018BFA7
:10097000404211F0004F41F4000121F07F4118BFC7
:10098000494292EA030F3FD0A2F1010241FA03FC6F
:1009900010EB0C00C3F1200301FA03F100F0004357
:1009A00002D5494260EB4000B0F5000F13D3B0F11F
:1009B000807F06D340084FEA310102F10102FE2A8E
:1009C00051D2B1F1004F40EBC25008BF20F00100FE
:1009D00040EA03007047490040EB000010F4000FAC
:1009E000A2F10102EDD1B0FA80FCACF1080CB2EB3F
:1009F0000C0200FA0CF0AABF00EBC250524218439E
:100A0000BCBFD0401843704792F0000F81F4000142
:100A100006BF80F400000132013BB5E74FEA410315
:100A20007FEA226C18BF7FEA236C21D092EA030F81
:100A300004D092F0000F08BF0846704790EA010FFB
:100A40001CBF0020704712F07F4F04D1400028BF28
:100A500040F00040704712F100723CBF00F500000A
:100A6000704700F0004343F0FE4040F40000704740
:100A70007FEA226216BF08467FEA236301464202EC
:100A800006BF5FEA412390EA010F40F480007047FF
:100A90004FF0000304E000BF10F0004348BF4042A5
:100AA0005FEA000C08BF704743F0964301464FF0E1
:100AB00000001CE050EA010208BF70474FF000033D
:100AC0000AE000BF50EA010208BF704711F000437E
:100AD00002D5404261EB41015FEA010C02BF84464E
:100AE0000146002043F0B64308BFA3F18053A3F5AD
:100AF0000003BCFA8CF2083AA3EBC25310DB01FAF4
:100B000002FC634400FA02FCC2F12002BCF1004F77
:100B100020FA02F243EB020008BF20F00100704708
:100B200002F1200201FA02FCC2F1200250EA4C005C
:100B300021FA02F243EB020008BF20EADC707047A2
:100B40004FF0FF0C1CEAD0521EBF1CEAD15392EAB0
:100B50000C0F93EA0C0F6FD01A4480EA010C40028C
:100B600018BF5FEA41211ED04FF0006343EA5010E6
:100B700043EA5111A0FB01310CF00040B1F5000F28
:100B80003EBF490041EAD3715B0040EA010062F1D7
:100B90007F02FD2A1DD8B3F1004F40EBC25008BFC1
:100BA00020F00100704790F0000F0CF0004C08BFDF
:100BB00049024CEA502040EA51207F3AC2BFD2F1AC
:100BC000FF0340EAC250704740F400004FF00003BA
:100BD000013A5DDC12F1190FDCBF00F000407047F4
:100BE000C2F10002410021FA02F1C2F1200200FA32
:100BF00002FC5FEA310040F1000053EA4C0308BFF9
:100C000020EADC70704792F0000F00F0004C02BF49
:100C1000400010F4000F013AF9D040EA0C0093F0C4
:100C2000000F01F0004C02BF490011F4000F013B1E
:100C3000F9D041EA0C018FE70CEAD15392EA0C0F8C
:100C400018BF93EA0C0F0AD030F0004C18BF31F0F7
:100C5000004CD8D180EA010000F00040704790F0CD
:100C6000000F17BF90F0004F084691F0000F91F071
:100C7000004F14D092EA0C0F01D142020FD193EA37
:100C80000C0F03D14B0218BF084608D180EA0100BF
:100C900000F0004040F0FE4040F40000704740F09B
:100CA000FE4040F4400070474FF0FF0C1CEAD05269
:100CB0001EBF1CEAD15392EA0C0F93EA0C0F69D0C5
:100CC000A2EB030280EA010C49024FEA402037D030
:100CD0004FF0805343EA111143EA10130CF0004027
:100CE0008B4238BF5B0042F17D024FF4000C8B4217
:100CF00024BF5B1A40EA0C00B3EB510F24BFA3EBF7
:100D0000510340EA5C00B3EB910F24BFA3EB9103C6
:100D100040EA9C00B3EBD10F24BFA3EBD10340EA20
:100D2000DC001B0118BF5FEA1C1CE0D1FD2A3FF666
:100D300050AF8B4240EBC25008BF20F0010070471B
:100D40000CF0004C4CEA50207F32C2BFD2F1FF03BE
:100D500040EAC250704740F400004FF00003013AEF
:100D600037E792F0000F00F0004C02BF400010F493
:100D7000000F013AF9D040EA0C0093F0000F01F0A7
:100D8000004C02BF490011F4000F013BF9D041EAC9
:100D90000C0195E70CEAD15392EA0C0F08D14202FC
:100DA0007FF47DAF93EA0C0F7FF470AF084676E7CF
:100DB00093EA0C0F04D14B023FF44CAF08466EE7A8
:100DC00030F0004C18BF31F0004CCAD130F0004276
:100DD0007FF45CAF31F000437FF43CAF5FE700BFCE
:100DE00042000ED2B2F1FE4F0BD34FF09E03B3EB95
:100DF000126209D44FEA002343F0004323FA02F0C1
:100E000070474FF00000704712F1610F01D14202AC
:100E100002D14FF0FF3070474FF00000704700BF25
:100E200038B50E4B054618784FF47A73B3FBF0F3E0
:100E30000B4A1068B0FBF3F000F09AFC044658B976
:100E40000F2D09D8024629464FF0FF3000F050FC24
:100E5000044B20461D6038BD012038BD0000002035
:100E60000800002004000020074A08B5136803208A
:100E700043F01003136000F029FC0020FFF7D0FFBF
:100E800002F056FF002008BD00200240034A044B38
:100E900011681B780B441360704700BFB00000203E
:100EA00000000020014B1868704700BFB000002010
:100EB00038B50446FFF7F6FF0546631C1EBF044B1A
:100EC0001B78E418FFF7EEFF401B8442FAD838BDC8
:100ED00000000020436A10B59A6A12F0500F1BD12F
:100EE0009A6A42F400729A621A68926802F4602266
:100EF000B2F5602F0CD1DA6852B99A6A22F4807286
:100F00009A629A6AD2045EBF9A6A42F001029A62B9
:100F1000184602F0B5FA10BD1B6ABDE810401B6B05
:100F20001847704708B5406AFFF7FBFF08BD7047D8
:100F3000036810B55A680446900627D51A689107C9
:100F400024D5A26AD2065EBFA26A42F40072A262EF
:100F50009A6802F46022B2F5602F10D1E26872B98B
:100F60005A6822F020025A60A36A23F48073A362B5
:100F7000A36ADB045EBFA36A43F00103A3622046B9
:100F800002F07EFA6FF0120223681A6023685A6832
:100F9000100630D51A6851072DD5A26AD2065EBF59
:100FA000A26A42F40052A2629A6802F4E042B2F5E8
:100FB000E04F0AD05A68500516D49A6802F46022AD
:100FC000B2F5602F10D1E26872B95A6822F080023F
:100FD0005A60A36A23F48053A362A36AD9055EBF53
:100FE000A36A43F00103A362204600F011FA6FF0F8
:100FF0000C0223681A6023685A6852060DD51B68D4
:10100000DB070AD5A36A204643F48033A362FFF7C7
:101010008EFF6FF0010223681A6010BD7047406AAE
:1010200008B5836A43F040038362C36A43F0040354
:10103000C362FFF7F3FF08BD002373B5019390F877
:101040002430012B74D001234D6880F82430062D04
:1010500002684FEA85030C6825D82B441F25566B80
:10106000053B9D4026EA050504FA03F32B43536331
:10107000092C4FEA44038D682FD907262344D168F1
:101080001E3B9E4021EA060105FA03F30B43D360A1
:10109000A4F11003012B2BD90023002280F8242077
:1010A000184602B070BD0C2D0BD82B441F25166BB3
:1010B000233B9D4026EA050504FA03F32B43136303
:1010C000D6E72B441F25D66A413B9D4026EA0505FD
:1010D00004FA03F32B43D362CAE7072611692344BA
:1010E0009E4021EA060105FA03F30B431361CFE7A3
:1010F000104B9A4216D193681B02CDD49368102CE2
:1011000043F400039360C7D10B4B0C4A1B68B3FB3D
:10111000F2F20A2353430193019B002BBCD0019BA5
:10112000013BF8E7836A43F0200383620123B4E7BD
:101130000223B5E7002401400800002040420F00D0
:10114000002373B50193036804469A68D20702D559
:10115000002002B070BD9A6842F001029A60124B02
:10116000124A1B68B3FBF2F30193019BC3B9FFF76B
:1011700099FE064623689D6815F00105E8D1FFF742
:1011800091FE801B0228F5D9A36A84F8245043F00D
:101190001003A362E36A012043F00103E362D8E78E
:1011A000019B013BE0E700BF0800002040420F0028
:1011B0002DE9D8419046404B026804469A420F46BA
:1011C00002D03E498A4203D15B6813F4702F6ED17E
:1011D00094F82430012B6CD00123204684F824306D
:1011E000FFF7AEFF064600285DD1A06A216820F413
:1011F0007060324B20F0010040F480709942A06290
:1012000004D12D4A536813F4702F3ED1A36A23F4FE
:101210008013A3624B685A0505D5A36A23F4405393
:1012200043F48053A362A36A206A13F4805318BF67
:10123000E36A3A4618BF23F00603E362002384F80A
:1012400024301F4B4C3183621E4BC3621E4B036321
:101250006FF0020341F84C3C51F8443C43F4807376
:1012600041F8443C434600F0DFFA23689A6802F4F0
:101270006022B2F5602F9A680CBF42F4A00242F4DB
:1012800080129A603046BDE8D881A36A43F4801387
:10129000A36253685B0541BFA06A20F4405040F44C
:1012A0008050A062BFE7002384F82430EAE70126DB
:1012B000E8E70226E6E700BF0024014000280140DD
:1012C000D50E0008250F00081F10000838B5036868
:1012D00004469A68D20701D4002038BD9A6822F0EB
:1012E00001029A60FFF7DEFD054623689B68DB0775
:1012F000F2D5FFF7D7FD401B0228F6D9A36A0120DB
:1013000043F01003A362E36A43F00103E36238BDD4
:1013100070B50446002871D0836A23B9C36280F88F
:10132000243001F055FF2046FFF7D0FFA36A13F0E9
:10133000100FA36A64D1002862D1E16923F48853B5
:10134000626823F0020343F002030A43A168A36228
:10135000E368B1F5807F42EA430238D0012914BF27
:1013600006464FF480766569012D07D1002B30D1F8
:10137000A369013B46EA433545F400662368B1F5AD
:10138000807F5D6825F4694545EA06055D609E68D5
:101390001D4D05EA060545EA02059D6001D00129BB
:1013A00020D1216901390905DD6A25F47005294339
:1013B000D9629968154B0B409A4215D10023E3621C
:1013C000A36A23F0030343F00103A36270BD0E463A
:1013D000C9E7A36A43F02003A362E36A43F0010371
:1013E000E362CBE70021DFE7A36A23F0120343F0B7
:1013F0001003A362E36A43F00103E362012070BDBE
:1014000043F01003A362F9E7FDF7E1FFFE0E1FFFB3
:10141000704770B50446002869D090F83C3003F05E
:10142000FF021BB980F83D2001F044FF022384F83D
:101430003C3023681A6822F002021A601A6842F0EF
:1014400001021A60FFF72EFD06462268556815F066
:1014500001054ED05368D90746D5A369E169012B30
:101460000CBF802300230129216A0CBF43F04003F5
:1014700023F040030129616A0CBF43F0200323F0ED
:1014800020030129A16A0CBF43F0100323F01003CD
:101490000129E16A0CBF43F0080323F00803012986
:1014A00011680CBF43F0040323F0040321F0FC0196
:1014B0000B431360E168A3680B4321690B43616927
:1014C0000B43616801390B43D361136823F00103B7
:1014D0001360FFF7E7FC054623685A68D20713D468
:1014E000586810F001001BD0042384F83C30012020
:1014F00070BDFFF7D7FC801B0A28A6D9032084F80B
:101500003D5084F83C0070BDFFF7CCFC401B0A281E
:10151000E2D90320002384F83C0084F83D3070BDFC
:101520000123206484F83C3070BD000002682DE97E
:10153000F843936804465B010F4606D493681D0187
:1015400003D49368D80040F1B18094F83D30012B6A
:1015500000F0B280012384F83D3094F83C30DBB2D7
:10156000322B66D0622B66D0222B66D1422384F8C0
:101570003C309368590162D4936813F0006F14BF34
:10158000012602264FEA061E02EB0E03206BD3F85B
:101590008011856801F00101C3F88011D0F80CC0FA
:1015A000002D4ED10568D3F880114CEA45550D4306
:1015B000C3F88051D3F88451016925F00F0501F07B
:1015C0000F010161C3F88451D3F884517244294357
:1015D000C3F884114169DFF8EC80C2F88811816991
:1015E000DFF8E490C2F88C11D3F8802142F00102B8
:1015F000C3F88021FFF756FC0546314A23689B68F3
:10160000002E45D132EA030314BF0123002313BB8C
:1016100094F83C30DBB2522B42D0722B42D0422B9A
:1016200042D12223002084F83C3084F83D00BDE8FC
:10163000F88352239BE7722399E7122397E700264A
:10164000A0E74168D3F8808145EA0C0545EAC10569
:1016500045EA0805ACE77B1CD0D05FB9032384F8CA
:101660003C30236866B1012E0CBF4FF400424FF4AA
:10167000000206E0FFF716FC401B8742BDD2EDE7F3
:1016800080229A600023032084F83D30BDE8F8836F
:10169000012E02D139EA0303B6E738EA0303B3E7C0
:1016A0003223BFE76223BDE70123BBE70423012008
:1016B00084F83C30BDE8F8830220BDE8F88300BF21
:1016C000010000040000011000010008074A0002A8
:1016D000D36800F4E06023F4E0631B041B0C43F0C8
:1016E000BF6343F400330343D360704700ED00E071
:1016F000174B30B5DC68C4F30224C4F10703251D81
:10170000042B28BF0423062D4FF0010598BF0024A9
:1017100005FA03F303F1FF3388BF033C1940A140EE
:1017200005FA04F4013C2240002842EA01024FEA93
:101730000212AFBF00F16040064B00F00F00D2B2C2
:10174000A5BFD2B200F561401A5480F8002330BD25
:1017500000ED00E014ED00E00123420900F01F005D
:1017600003FA00F0014B43F82200704700E100E06B
:101770000138B0F1807F0AD2F021064B064A58604A
:1017800082F823100020072298601A607047012019
:10179000704700BF10E000E000ED00E0044B0428BB
:1017A0001A680CBF42F0040222F004021A6070476B
:1017B00010E000E0704708B5FFF7FCFF08BD00002F
:1017C00010B550B314220168154B84680B44B3FB69
:1017D000F2F39B000364134B0A68C363436822F46B
:1017E0007F522343C46822F0300223430469234319
:1017F0004469234384692343C469234313430B602F
:101800000122002380F821208362C36203634363C3
:10181000836380F82030184610BD012010BD00BF42
:10182000F8FFFDBF00000240F0B590F82040012C09
:1018300035D0012490F8215080F82040A5424FF087
:1018400000064FF0020428D180F821400468866326
:101850002668076C26F001062660C66BBD407560E1
:10186000636043680568102BC36A0BBFA260A16068
:10187000E160E2604BB1236843F00E0323602B6804
:10188000002043F001032B60F0BD236823F0040324
:101890002360236843F00A03F0E780F82060022009
:1018A000F0BD000090F8213010B5022B03D00423C6
:1018B0008363012010BD03681A6822F00E021A60CB
:1018C0001A6822F001021A60184A93421FD014329B
:1018D00093421ED0143293421DD0143293421DD035
:1018E000143293421DD0143293420CBF4FF4801334
:1018F0004FF080730E4A00245360012380F821309A
:10190000436B80F820407BB19847204610BD0123EF
:10191000F0E71023EEE74FF48073EBE74FF48053CA
:10192000E8E74FF48033E5E7184610BD08000240B1
:101930000000024070B40425C66B026C3468036872
:1019400095402542196832D04D0730D51A68960661
:101950005EBF1A6822F004021A603E4A934219D010
:101960001432934218D01432934217D01432934257
:1019700017D01432934217D0143293420CBF4FF455
:1019800080034FF08063344A5360C36A002B5ED0FB
:1019900070BC18470423F6E74023F4E74FF4806354
:1019A000F1E74FF48043EEE74FF48023EBE70225A5
:1019B0009540254235D08D0733D51A68940606D454
:1019C0001A6822F00A021A60012280F82120214AB6
:1019D000934219D01432934218D01432934217D044
:1019E0001432934217D01432934217D014329342D8
:1019F0000CBF4FF400134FF00073174A53600023DD
:101A000080F82030836AC1E70223F6E72023F4E759
:101A10004FF40073F1E74FF40053EEE74FF4003357
:101A2000EBE708259540254211D009070FD5196825
:101A300021F00E011960012303FA02F27260836340
:101A400080F82130002380F82030036B9EE770BCC3
:101A5000704700BF08000240000002402DE9F74F28
:101A600000221646654BDFF8A4E1DFF8A4C14FF071
:101A700001080C6808FA06F808EA0404A0457FD1BA
:101A80004D68122D00F0AF8000F28880022D00F02A
:101A9000A7807CD8002D00F08E80012D00F09E8064
:101AA0004FF00F09FF2C93BF824606F18045083D99
:101AB000D0F800B092BFB500D0F804B0AD0009FA7C
:101AC00005F82BEA080802FA05F588BF00F1040AB8
:101AD00048EA0505CAF80050D1F804A01AF0805F62
:101AE0004ED0474D464FAD6926F0030845F001053D
:101AF000BD61BD6908F1804805F00105019508F553
:101B0000803806F0030B019D4FEA8B0BD8F8085084
:101B100009FA0BF925EA09093A4DA84268D005F5FA
:101B20008065A84266D005F58065A84264D005F5B9
:101B30008065A8420CBF0325042505FA0BF545EA8C
:101B40000905C8F808501D681AF4803F14BF2543E2
:101B5000A5431D605D681AF4003F14BF2543A543EB
:101B60005D609D681AF4801F14BF2543A5439D60E6
:101B7000DD681AF4001F14BF2C4325EA0404DC605E
:101B80000136102E7FF473AF03B0BDE8F08F032D44
:101B900022D0112D84D1CA68043281E71A4FBD4288
:101BA00009D012D8DFF86C904D4504D009F5803982
:101BB0004D457FF475AF8A68C2B1012A0CBFC0F8E9
:101BC0001080C0F8148008226AE77545F3D0654597
:101BD000F1D0DFF84490EBE7002261E7CA685FE7E5
:101BE000CA6808325CE7CA680C3259E7042257E732
:101BF0000025A2E70125A0E702259EE70004014099
:101C000000100240000801400000211000003110C7
:101C10000000321000001110000022100AB1016112
:101C200070470904FBE70268536913F480630DD021
:101C30006FF4806353610423202203640023036351
:101C400080F83C3080F83D200120704718467047EE
:101C50002DE9F843044617469946C1F307488EB26A
:101C60002568B8F1010F0CBF6B69AB6936EA030355
:101C700014BF0120002008B9BDE8F8836B695A053C
:101C800012D52B68202243F400732B606FF480631D
:101C90006B610423236400230120236384F83C3018
:101CA00084F83D20BDE8F8837B1CD9D04FB90023D0
:101CB0002022236384F83C3084F83D200320BDE8D3
:101CC000F883FFF7EFF8A0EB09008742C8D2EEE7F0
:101CD0002DE9F843044690461F46089EC1F3074984
:101CE0008DB22368B9F1010F0CBF5B699B6935EABE
:101CF00003030CBF01230023434502D00020BDE8AD
:101D0000F8837B1CEDD05FB900232022236384F885
:101D10003C3084F83D20032084F83E30BDE8F88351
:101D2000FFF7C0F8801B8742DBD2EDE770B50446B1
:101D30000D46164623685B691B0601D5002070BD61
:101D40002046FFF770FFA8B96A1CF3D065B9236C71
:101D5000202243F02003236400230320236384F81C
:101D60003C3084F83D2070BDFFF79CF8801B854215
:101D7000E0D2ECE7012070BD70B504460D46164672
:101D80002068436913F0400301D0002070BD426910
:101D9000D2060BD56FF0100242612022236484F832
:101DA0003C302363012084F83D2070BD5DB9236C75
:101DB000032043F020032364202384F83D300023D4
:101DC00084F83C3070BDFFF76DF8801B8542D7D298
:101DD000EDE770B504460D46164623685B695B0760
:101DE00001D5002070BD2046FFF71DFFA8B96A1C71
:101DF000F3D065B9236C202243F020032364002331
:101E00000320236384F83C3084F83D2070BDFFF745
:101E100049F8801B8542E0D2ECE7012070BD00004C
:101E200038B5044608B9012038BD90F83D3003F0BC
:101E3000FF021BB980F83C2001F0E6FA2423226857
:101E400084F83D30136823F00103136000F032FD85
:101E500063682F4A934230D82E4A9042E3D92E4AE3
:101E60002168B0FBF2F24A6001320A62284A013866
:101E7000934232D85B00B0FBF3F0431CC3F30B0377
:101E8000042B38BF0423CB61226AE369002013438B
:101E90000B60E268236913438B60A2696369134393
:101EA000CB600B6843F001030B602023206484F8AF
:101EB0003D30206384F83E0038BD184A9042B2D9C4
:101EC000154D4FF49672B0FBF5F521686A434D60ED
:101ED0004FF47A75B2FBF5F2C6E7A26852B903EB8C
:101EE0004303B0FBF3F0431CC3F30B036BB143F4A8
:101EF0000043C8E719225343B0FBF3F0431CC3F37C
:101F00000B0313B143F44043BDE70123BBE700BF1C
:101F1000A08601007F841E0040420F00FF083D00A4
:101F20002DE9FF4104461F460D469046FEF7BAFFD5
:101F300094F83D300646202B04D00225284604B0F4
:101F4000BDE8F0810090192301225D492046FFF78A
:101F5000BFFE0028F1D194F83C30012BEDD00123D5
:101F600084F83C3023681A68D2075EBF1A6842F0D2
:101F700001021A601A6822F400621A60212284F8B1
:101F80003D20102284F83E2000222264A2F58032F7
:101F90006785E262628DC4F824802285E26A042AA1
:101FA00004D0012A02D012F5803F04D11A6842F40D
:101FB00080721A6002E0226B122AF7D000960A9B08
:101FC00000224FF001112046FFF782FE28BB236953
:101FD0002268B3F5804F12D105F0FE051561334636
:101FE0000A9A38492046FFF733FE0546A0B9236810
:101FF00003905A6903929B690393039B50E0EB1192
:1020000003F0060343F0F00313612F4933460A9AA5
:102010002046FFF71DFE48B1236C236C042B4FF0C4
:10202000000307D184F83C30012587E72368EDB22F
:102030001D61D4E784F83C3003257FE732460A99D6
:102040002046FFF773FE40B1236C042BF4D12268C5
:10205000136843F400731360E6E7616A20684B1C61
:1020600063620B78228D0361638D013B9BB26385B4
:102070004769531E9BB27F0723850AD54BB18B1C42
:1020800063624B78023A0361638D2285013B9BB208
:10209000638532460A992046FFF79BFE0028D3D17C
:1020A000238D002BCAD121680A6842F400720A60AD
:1020B000202284F83C3084F83D2084F83E303DE70F
:1020C0000200100002000100080001002DE9F043A9
:1020D000044689B098460D469146109FFEF7E2FEF1
:1020E00094F83D300646202B04D00225284609B03E
:1020F000BDE8F083009019230122A2492046FFF792
:10210000E7FD0028F1D194F83C30012BEDD00123FC
:1021100084F83C3023681A68D2075EBF1A6842F020
:1021200001021A601A6822F400621A60222284F8FE
:102130003D20102284F83E2000222264A2F5803245
:10214000A4F82A80E262628DC4F824902285E26AB3
:102150001968042A41F48061196004D0012A02D070
:1021600012F5803F04D11A6842F480721A6002E0CE
:10217000226B112AF7D000963B4600224FF0011146
:102180002046FFF7A5FD00284DD12369B3F5804F08
:10219000236839D145F00105EDB21D6133463A4659
:1021A00079492046FFF754FD054600283AD1228D93
:1021B0002368002A69D0012A7AD11A6822F4806241
:1021C0001A6072B6236804955A6904929A69049257
:1021D000049A1A6842F400721A6062B6DFF8B0819D
:1021E000238D002B5BD0032B00F2D480012B7BD1FD
:1021F000324639462046FFF7BFFD002800F09380A5
:10220000236C202B16D13EE04FEAE51808F00608B3
:1022100048F0F0021A615D4933463A462046FFF71E
:1022200017FD48B1236C236C042B4FF0000328D119
:1022300084F83C30012559E72368EDB21D613A4628
:10224000334651492046FFF703FD02460028E9D1F5
:102250002368079059692046079199690791079962
:10226000196841F48071196000963B464FF00111E6
:10227000FFF72EFD0028D6D1226848F0F103136144
:102280008CE784F83C30032530E703955A690392C4
:102290009A690392039A1A6842F400721A60202322
:1022A00084F83D30002384F83E3084F83C301DE74C
:1022B000022A1A680ED142F400621A6072B62368CC
:1022C00005955A6905929A690592059A1A6822F449
:1022D000806281E742F480621A6006955A6906922C
:1022E0009B690693069B79E7022B00963B464FF0CD
:1022F00000024146204624D1FFF7EAFC0028C2D163
:1023000072B623681A6842F400721A60626A1B6926
:10231000511C61621370238D013B2385638D013B4A
:102320009BB2638562B6636A5A1C62622268126954
:102330001A70238D013B2385638D013B9BB263851E
:102340004EE7FFF7C5FC024600289CD121680B68C8
:1023500023F480630B6072B6636A2046591C616285
:10236000216809691970238D0096013B2385638DCF
:102370004146013B9BB263853B46FFF7A9FC002821
:10238000BFD080E702001000020001000800010039
:1023900004000100324639462046FFF7EDFC0028D4
:1023A0007FF42EAF636A5A1C6262226812691A7047
:1023B000238D2268013B2385638D013B9BB263859E
:1023C00053695B077FF50CAF636A591C6162AEE726
:1023D00003682DE9F341DB07054610D42B689F07FE
:1023E0005ED42B68190700F195802B685A0700F11D
:1023F000BF80EA69002A40F02D81002014E0904C53
:10240000636803F00C03042B07D0636803F00C032C
:10241000082B0CD16368DE0309D523689C03DDD546
:102420006B68002BDAD1012002B0BDE8F0816B6847
:10243000B3F5803F10D1236843F480332360FEF767
:1024400031FD064623689803C8D4FEF72BFD801B98
:102450006428F7D90320E7E79BB9236823F4803386
:102460002360236823F480232360FEF71BFD0646C8
:1024700023689903B2D5FEF715FD801B6428F7D9B0
:10248000E8E7B3F5A02F236803D143F4802323604A
:10249000D1E723F480332360236823F48023CDE73E
:1024A000674C636813F00C0F07D0636803F00C03EC
:1024B000082B10D16368DA030DD423689B0702D57B
:1024C0002B69012BAFD123686A6923F0F80343EA33
:1024D000C203236085E72A695A4B6AB101221A6058
:1024E000FEF7E0FC064623689F07ECD4FEF7DAFC13
:1024F000801B0228F7D9ADE71A60FEF7D3FC064629
:10250000236898077FF56DAFFEF7CCFC801B02288F
:10251000F6D99FE7AA694A4C4B4BDAB101221A60FF
:10252000FEF7C0FC0646636A9B070DD54FF4FA52CE
:10253000464B1B68B3FBF2F3019300BF019B5A1E8D
:102540000192002BF9D150E7FEF7ACFC801B02286A
:10255000E9D97FE71A60FEF7A5FC0646636A9F0784
:102560007FF543AFFEF79EFC801B0228F6D971E78A
:10257000334CE369D80024D40127E36943F0805346
:10258000E361E36903F080530093009B304E3368AE
:10259000D90518D5EB68012B26D1236A43F0010336
:1025A0002362FEF77FFC41F288368046236A9B0750
:1025B0003FD5002F3FF41DAFE36923F08053E36163
:1025C00017E70027E2E7336843F480733360FEF7D0
:1025D00069FC80463368DA05DCD4FEF763FCA0EBC7
:1025E00008006428F6D935E7ABB9236A41F2883888
:1025F00023F001032362236A23F004032362FEF71E
:1026000051FC0646236A9807D3D5FEF74BFC801B86
:102610004045F7D91EE7052B236A03D143F0040395
:102620002362BAE723F001032362236A23F0040341
:10263000B6E7FEF737FCA0EB0800B042B6D909E7D1
:102640000010024000004242800442420800002084
:1026500000700040224C636803F00C03082B3FF429
:10266000E2AE00231F4E022A33602BD1FEF71AFC84
:102670000746236899011FD42B6AB3F5803F05D123
:102680006268A96822F400320A436260696A62687B
:102690000B4322F474121343636001233360FEF78B
:1026A00001FC054623689A013FF5A7AEFEF7FAFB49
:1026B000401B0228F6D9CDE6FEF7F4FBC01B02282A
:1026C000D7D9C7E6FEF7EEFB054623689B017FF5E9
:1026D00094AEFEF7E7FB401B0228F6D9BAE600BF2E
:1026E000001002406000424230B5194B87B002AC86
:1026F00003F11005224618685968083303C2AB423B
:102700001446F7D101238DF80430022311498DF8C6
:1027100005304B6803F00C02082A17D1C3F383423B
:1027200006A80244DB0312F8102C0CD54B680A48AB
:10273000C3F34043504306AA134413F8143CB0FBC0
:10274000F3F007B030BD05485043FAE70248F8E718
:10275000044200080010024000127A0000093D0007
:102760004D4A2DE9F0411368054603F007038B42FB
:102770000E4628D32A68910732D4D20738D4464A65
:10278000136803F007039E4273D32A68434C12F088
:10279000040F79D1130706D563682A6923F46053BF
:1027A00043EAC2036360FFF79FFF63683C4AC3F3D9
:1027B0000313D35CD8403B4B18600020FEF730FB7E
:1027C0000020BDE8F081136823F007030B4313607A
:1027D000136803F007039942CCD00120BDE8F081D3
:1027E0002E49A8684B6823F0F00303434B60C4E70D
:1027F0006A682A4C012A23681CD113F4003FECD0EC
:10280000636841F2883823F0030313436360FEF7E3
:1028100049FB6B680746012B14D1636803F00C0376
:10282000042BACD0FEF73EFBC01B4045F5D903207E
:10283000BDE8F081022A02D113F0007FDFE713F038
:10284000020FDCE7022B0FD1636803F00C03082BA7
:1028500095D0FEF727FBC01B4045F5D9E7E7FEF70B
:1028600021FBC01B4045E2D8636813F00C0FF6D182
:1028700085E7136823F0070333431360136803F0FD
:1028800007039E42A9D180E76368E96823F4E06307
:102890000B4363607EE700BF00200240001002404F
:1028A0004842000808000020014B1868704700BF2C
:1028B00008000020044B054A5B68C3F30223D35C85
:1028C000034A1068D8407047001002405842000880
:1028D0000800002003682DE9F341D907054620D5FB
:1028E000354CE369DA0032D40127E36943F08053C1
:1028F000E361E36903F080530193019B2F4E33683A
:10290000DB0526D5236A13F4407336D1236A6A683F
:1029100023F44073134323621FB1E36923F0805310
:10292000E3612868830706D5234AA968536823F41E
:1029300040430B43536010F010001BD01E4AE9685F
:102940005368002023F480030B43536012E00027F8
:10295000D4E7336843F480733360FEF7A3FA80460C
:102960003368D805CED4FEF79DFAA0EB08006428A2
:10297000F6D9032002B0BDE8F0816A6802F4407223
:102980009342C3D001200E4A236A1060002023F432
:10299000407110602162D907B8D5FEF783FA41F281
:1029A00088380646236A9A07B0D4FEF77BFA801B64
:1029B0004045F7D9DDE700BF00100240007000403D
:1029C0004004424270470000036830B559689A6875
:1029D00085B002F04105012D044605D14D0603D511
:1029E000036C984705B030BD900704D50D0602D59D
:1029F000636C2046F5E712F0600FF3D08806F1D53E
:102A000055060ED594F851000025032836D0606D88
:102A100040F0040060650195D868019098680190C5
:102A2000019890060CD5626D42F0010262650022A9
:102A300003929A6803921A6822F040021A60039A7D
:102A4000626D002ACED05A6822F0E0025A6001225C
:102A500084F851208A0718D05A68E06C22F00302EB
:102A60005A6018B10B4B4363FEF71CFFA06C0028A3
:102A7000B8D0084B4363FEF715FFB3E70295DA6859
:102A800002929B680293029BACE72046FFF79AFFF5
:102A9000A8E700BF992A000808B50023406AC38749
:102AA000C386FFF78FFF08BD10B50446002834D059
:102AB0000023836290F851300BB901F005F902232D
:102AC000216884F851300B68A06823F040030B6044
:102AD0006368A2690343E0680343206903436069B4
:102AE0000343E0690343206A0343A06A034302F4FB
:102AF000007003430B60120C636A02F004021A4375
:102B0000E36A4A600B61CB69002023F40063CB6168
:102B10000123606584F8513010BD012010BD0368A9
:102B20000020DA6842F00102DA601A6842F001021D
:102B30001A607047704790F83C3070B5012B4FF029
:102B400002031CD0012280F83D30036880F83C204D
:102B50009A6822F47F4222F077029A600A68402A3B
:102B600079D019D8102A00F093800AD8002A00F0F2
:102B70008980012380F83D30002380F83C301846DE
:102B800070BD202A00F08A80302AF2D19A6822F0A3
:102B9000700242F0370236E0702A36D01BD8502A35
:102BA00042D0602AE5D11C6A4D6824F01004CE683A
:102BB0001C6299691A6A21F4704122F0A00242EA6B
:102BC000051241EA063199611A629A6822F0700290
:102BD00042F0670217E0B2F5805F11D0B2F5005FF6
:102BE000C7D18A684D689C68C9682A4324F47F4429
:102BF00042EA012222439A609A6842F4804202E04B
:102C00009A6822F007029A60B3E78A684D689C6868
:102C1000C9682A4324F47F4442EA012222439A608D
:102C20009A6842F07702EEE74C68CE68196A1D6A2E
:102C300021F00A0125F001051D629A69214322F065
:102C4000F00242EA06129A6119629A6822F0700252
:102C500042F05702D7E74C68CE68196A1D6A21F026
:102C60000A0125F001051D629A69214322F0F00254
:102C700042EA06129A6119629A6822F0700242F0E2
:102C80004702C0E79A6822F0700242F00702BAE7F2
:102C90009A6822F0700242F01702B4E79A6822F0B4
:102CA000700242F02702AEE790F83C30012B1CD0B6
:102CB0000C2918D8DFE801F0071717170E17171798
:102CC00011171717140003685B6B002280F83C2073
:102CD0001846704703689B6BF7E70368DB6BF4E704
:102CE00003681B6CF1E70023EFE70223F0E770476E
:102CF00070477047036810B51A69044691070ED5EE
:102D0000DA6892070BD56FF002021A6101229B6903
:102D100002779B0777D000F0CFFB0023237723684F
:102D20001A69500710D5DA6851070DD56FF0040203
:102D30001A6102229B69227713F4407F204668D0F3
:102D400000F0BAFB0023237723681A6912070FD516
:102D5000DA6810070CD56FF008021A610422DB69EB
:102D60002277990720465AD000F0A6FB002323774C
:102D700023681A69D20610D5DA68D0060DD56FF02F
:102D800010021A610822DB69227713F4407F204683
:102D90004BD000F091FB0023237723681A69D107F9
:102DA00008D5DA68D20705D56FF0010220461A610E
:102DB00000F04EFB23681A69100608D5DA68110680
:102DC00005D56FF0800220461A6100F0AEF9236845
:102DD0001A69520608D5DA68500605D56FF0400228
:102DE00020461A61FFF785FF23681A69910622D5EC
:102DF000DA6892061FD56FF020022046BDE8104029
:102E00001A6100F091B9FFF772FF2046FFF770FFDB
:102E100083E7FFF76CFF2046FFF76AFF92E7FFF7B3
:102E200066FF2046FFF764FFA0E7FFF760FF20463C
:102E3000FFF75EFFAFE710BD1A4A036890420AD061
:102E4000B0F1804F07D0A2F59432904203D002F542
:102E50008062904215D14A6823F070031343114AEF
:102E600090420AD0B0F1804F07D0A2F59432904240
:102E700003D002F58062904203D1CA6823F4407304
:102E800013434A6923F08003134303608B68C362D2
:102E90000B688362034B984204BF0B6903630123F1
:102EA00043617047002C014010B50446A0B190F872
:102EB0003D3003F0FF021BB980F83C2001F0D8F848
:102EC0000223206884F83D30211DFFF7B5FF012360
:102ED000002084F83D3010BD012010BD10B504461F
:102EE000A0B190F83D3003F0FF021BB980F83C2000
:102EF000FFF720FE0223206884F83D30211DFFF7F4
:102F00009BFF0123002084F83D3010BD012010BD3F
:102F100070B5046A124E24F001040462B042846960
:102F2000056A0AD0B0F1804F07D0A6F59436B042BA
:102F300003D006F58066B0420FD124F0030422438B
:102F40001B0122F0F002DBB225F00A0501F00A01B4
:102F50001A4329438261016270BD44F00102EFE728
:102F6000002C0140F8B590F83C300446012B0D468A
:102F70004FF0020019D0012384F83D0084F83C3062
:102F8000A2B9CB68206806C9FFF7C2FF2368A96809
:102F90009A6922F00C029A619A690A439A610123A4
:102FA000002084F83D3084F83C00F8BD042A8E6887
:102FB000236882C9E8681FD11A6A000322F0100250
:102FC0001A629A691D6A22F4407242EA072280B2AC
:102FD00022F470420901024301F0A00125F0A00093
:102FE00001439A6119629A6922F440629A619A696E
:102FF00042EA06269E61D2E7082A1A6A1CD122F408
:1030000080721A62DA69000122F003021D6A3A43F3
:10301000C0B222F0F0020902024301F4206125F45B
:1030200020600143DA611962DA6922F00C02DA6188
:10303000DA691643DE61B2E722F480521A62DA6975
:10304000000322F440721D6A42EA072222F4704211
:1030500080B20903104301F4005125F400521143DA
:10306000D8611962DA6922F44062DA61DA6942EA07
:103070000626DFE710B50124036A8C4023EA040327
:103080000362036A8A401A43026210BD10B5044607
:103090000C290DD8DFE801F0070C0C0C170C0C0CF8
:1030A0001C0C0C0C21000268D36843F00203D360AF
:1030B00020680122FFF7DEFF22680020136843F03A
:1030C0000103136010BD0268D36843F00403EEE708
:1030D0000268D36843F00803E9E70268D36843F065
:1030E0001003E4E790F83C3010B5012B4FF00203D9
:1030F00018D080F83D3003680C685A68496822F09F
:1031000070025A605A6822435A609A6822F080021C
:103110009A609A680A439A60012380F83D30002340
:1031200080F83C30184610BD704770472548264B44
:1031300030B503604FF4807383604FF400230024A4
:10314000C361042385B0C460446144600361FEF739
:10315000DFF818B145211D4800F05CFC012501A9EC
:103160001848019402950394FDF766FF18B14F21AA
:10317000164800F04FFC022401A912480195029460
:10318000FDF75AFF18B15821104800F043FC019494
:10319000032401A90B480294FDF74EFF18B16121E9
:1031A0000A4800F037FC042306480DEB03010194A4
:1031B0000293FDF741FF18B16A21044800F02AFC90
:1031C00005B030BDB40000200024014014420008C6
:1031D00030B502681F4B87B09A42054637D103F5D8
:1031E0006C439A691C4842F400729A619B6902A977
:1031F00003F400730193019B0F2302930323174CE5
:103200000393FEF72BFC164B2046236000236360DC
:10321000A3608023E3604FF4807323614FF48063E5
:1032200063612023A3614FF48053E361FEF7C8FA82
:1032300018B191210B4800F0EDFB00222C62122006
:1032400011466562FEF754FA1220FEF785FA07B0C0
:1032500030BD00BF0024014000080140E400002010
:10326000080002401442000808B54FF400324FF045
:10327000080E0D480D4B026180E808404FF48002B3
:10328000002342618360C3608361C3610362436260
:103290008362C362FEF7BDF828B1BDE8084045214E
:1032A000034800F0B7BB08BD2801002000640040BF
:1032B000214200087FB50268174B9A4228D103F5D6
:1032C000D633DA6902A942F00072DA61DB69134889
:1032D00003F000730193019B4FF48073029300236A
:1032E00003930493FEF7BAFB4FF400730293022397
:1032F0000393032302A909480593FEF7AFFB084A8D
:10330000536823F4C04343F0E06343F480435360C5
:1033100007B05DF804FB00BF00640040000C0140F2
:10332000000001400A4B07B55A690B2042F0010228
:103330005A6100225B69114603F001030193019B6E
:10334000FEF7D6F90B20FEF707FA03B05DF804FB91
:1033500000100240184B10B59A6988B042F0200264
:103360009A619A69154C02F020020192019A9A69B9
:10337000204642F004029A619A69102102F0040288
:103380000292029A9A6942F008029A619B690022AD
:1033900003F008030393039BFEF740FC1023049300
:1033A0000123059300230693022304A920460793D3
:1033B000FEF754FB08B010BD0010024000080140A9
:1033C00008B50D480D4BDFF83CE04FF4804280E833
:1033D0000840002302618360C36043618361C3616D
:1033E0000362FEF71DFD28B1BDE8084042210448F4
:1033F00000F010BB08BD00BF6C0100200058004069
:103400002E420008A08601007FB502680D4B9A424B
:1034100014D14FF44063029312230393032302A9B0
:1034200009480593FEF71AFB084BDA6942F480025B
:10343000DA61DB6903F480030193019B07B05DF857
:1034400004FB00BF00580040000C01400010024087
:10345000074B984201BF074A136801331360064BBC
:10346000984201BF054A136801331360704700BFDB
:103470008C04002098000020CC040020A400002030
:103480000268094B10B59A420DD100221E20074C4C
:10349000074934F812309BB24343C3F307338B54CC
:1034A0000132042AF5D110BD00240140580000204B
:1034B00060000020000000008D4A38B5904231D1F4
:1034C000017F01292DD18B4C8B4D23682B60FFF799
:1034D000EBFB4FF4C8512060884C2A68236801FB3D
:1034E0000300874B801A1861FCF774FF7AA3D3E9B5
:1034F0000023FCF7E5FF0022824BFCF7E1FF0246C8
:103500000B4681490020C1E908238049FDF702F9F3
:103510007F4B0022FCF7D4FF7E4BC3E9240100233C
:10352000236038BD7C4A9042FBD1017F012932D112
:103530007A4C7B4D23682B60FFF7B6FB4FF4C851E4
:103540002060784C2A68236801FB03006C4B801ACA
:103550001860FCF73FFF60A3D3E90023FCF7B0FF3E
:103560000022714BFCF7ACFF02460B466649002077
:10357000C1E900236549FDF7CDF859A3D3E900233C
:10358000FCF79EFF58A3D3E90023FCF799FF614B9A
:10359000C3E91C01C3E7022932D1644C644D23689E
:1035A0002B60FFF781FB4FF4C85120605D4C2A6807
:1035B000236801FB0300524B801A5860FCF70AFF96
:1035C00045A3D3E90023FCF77BFF0022564BFCF711
:1035D00077FF02460B464C490020C1E902234B49C4
:1035E000FDF798F83EA3D3E90023FCF769FF3EA35B
:1035F000D3E90023FCF764FF464BC3E91E018EE7C5
:10360000042932D14B4C4C4D23682B60FFF74CFB07
:103610004FF4C8512060434C2A68236801FB030023
:10362000374B801A9860FCF7D5FE2BA3D3E9002313
:10363000FCF746FF00223C4BFCF742FF02460B46DC
:1036400031490020C1E904233049FDF763F824A380
:10365000D3E90023FCF734FF23A3D3E90023FCF7CD
:103660002FFF2C4BC3E9200159E708297FF459AFFC
:10367000324C334D23682B60FFF716FB4FF4C851D3
:103680002060284C2A68236801FB03001C4B801A29
:10369000D860FCF79FFE10A3D3E90023FCF710FFCE
:1036A0000022214BFCF70CFF02460B461649002076
:1036B000C1E906231549FDF72DF809A3D3E9002335
:1036C000FCF7FEFE08A3D3E90023FCF7F9FE114B3B
:1036D000C3E9220123E700BF322E915A8A20ED3E32
:1036E000728A8EE4F21FCA3F721CC7711CC7D13F99
:1036F000CC0400209C000020A0000020A40000209A
:103700006400002000002840300000200000F03F4E
:1037100000004E40C00100208C04002078000020F2
:103720007C00002098000020000010408000002055
:1037300084000020880000208C00002090000020E1
:10374000940000204FF4803310B594B001220B9305
:103750000021022412934FF4E0130AA80A920C915C
:103760000E9211941393FEF733FE00B1FEE70F2380
:1037700005934FF4806307900990214605A80694AD
:103780000893FEF7EDFF00B1FEE74FF4004301A8F8
:1037900001940393FFF79EF8044600B1FEE7FFF79C
:1037A00083F84FF47A73B0FBF3F0FDF7E1FF0420E8
:1037B000FDF7F4FF224621464FF0FF30FDF798FF5A
:1037C00014B010BDBFB5FDF74FFBFFF7BBFFFFF710
:1037D000C1FDFFF7A7FD00F057FB00F0C3FBFFF7AB
:1037E000A5FC00F00DFCFFF73FFDFFF7E9FD00F041
:1037F00045FA7A48FDF70DFE7948FFF755F9794803
:10380000FFF78DF97848FFF78AF900217548FFF72F
:103810003DFC04217348FFF739FC08217148FFF78C
:1038200035FC0C216F48FFF731FC00216E48FFF793
:103830002DFC6E48FFF773F904226D496D48FDF7C2
:10384000B7FC0723009300236B4D1A460195D02146
:103850006A4800F0E1F84FF0804ADFF8B091DFF8F5
:10386000B081654AD021654800F074F94FF4FA63DD
:10387000634C5A4E23600023E360A3600723614F2B
:1038800023613463D7E91C2319461046CDE902238E
:10389000FDF728F8D7E91E23207519461046CDE913
:1038A0000423FDF71FF86075D7E92001FDF71AF82A
:1038B000A075D7E92201FDF715F8DDE90423E075CD
:1038C000DDE90201FCF74AFCFDF70CF8C0F3460005
:1038D0002076D7E92401FDF705F880B2030AA07627
:1038E0000A2130466376FDF721FE4FF47A70FDF72A
:1038F000DFFA40F2CE73236004232361424B0A2196
:103900001A78304622755A78062762759A78DB78DD
:10391000A275E375FDF70AFE4FF47A70FDF7C8FA59
:1039200040F2D27351462360E8682761FDF700F842
:103930004946FDF705F9FDF753FA80B2030A2375EE
:10394000607551462869FCF7F3FF4946FDF7F8F822
:10395000FDF746FA80B2030AA375E075514668691F
:10396000FCF7E6FF4946FDF7EBF8FDF739FA80B2C0
:10397000030A60760A2130462376FDF7D7FD4FF41F
:103980007A70FDF795FA40F2D373414623602868B8
:103990002761FCF7CDFFFDF723FA80B2030A2375F8
:1039A000414660756868FCF7C3FFFDF719FA80B2FD
:1039B000030AA3754146E075A868FCF7B9FFFDF757
:1039C0000FFA80B2030A60760A2130462376FDF7AB
:1039D000ADFD4FF47A70FDF76BFA42E72801002045
:1039E000F40300208C040020CC0400204C040020B0
:1039F00058000020B4000020DC0300206C010020EF
:103A0000C0030020C0010020600000200000C84268
:103A100000007A43FEE700002DE9F0434FF47A7589
:103A20001E466B234FF0000885B017468DF80C300A
:103A300003AA022300950C4681468DF80D80FEF7FF
:103A40006FFA0120FDF734FA6C2303AA21468DF8A2
:103A50000C300095022348468DF80D80FEF760FA81
:103A60000120FDF725FA1A234FF0010803AA214689
:103A70008DF80C300095022348468DF80D80FEF736
:103A80004FFA4046FDF714FA1B2303AA21468DF88E
:103A90000C300095022348468DF80D70FEF740FA71
:103AA0004046FDF705FA1C2303AA21468DF80C3089
:103AB0000095022348468DF80D60FEF731FA404626
:103AC000FDF7F6F919238DF80C309DF8303003AA74
:103AD0008DF80D302146022300954846FEF720FA66
:103AE0004046FDF7E5F9082F12D007D867B1082E38
:103AF0001ED011D8BEB105B0BDE8F083102F09D09B
:103B0000182FF4D10D4A00E00D4A0E4B1A60EEE773
:103B10000D4AFAE70D4AF8E7102E0CD0182EEAD11C
:103B20004FF08A4201E04FF08D42094B1A60E2E704
:103B30004FF08C42F9E74FF08B42F6E73333834185
:103B400000000343AC0000200000834233330342F3
:103B5000A800002043232DE9F04F4FF47A788246E5
:103B60000F4685B00DF1100909F8083D1446CDF84F
:103B700000804A460123FEF7D3F90DF109023946C8
:103B8000CDF8008006235046FEF7A0FA9DF80B30D2
:103B90009DF80C609DF80E5046EA03269DF80D3006
:103BA0009DF80A0045EA0325324B36B2D3F800B03F
:103BB0009DF809302DB240EA032000B2FCF76CFFFB
:103BC0005946FDF771F820603046FCF765FF59460D
:103BD000FDF76AF860602846FCF75EFF5946FDF77E
:103BE00063F8A0601420FDF763F93B234A468DF883
:103BF00008303946CDF8008001235046FEF790F991
:103C00000DF109023946CDF8008006235046FEF733
:103C10005DFA9DF80B309DF80C609DF80E5046EA59
:103C200003269DF80D309DF80A0045EA0325124B46
:103C300036B21F689DF809302DB240EA032000B269
:103C4000FCF72AFF3946FDF72FF8E0603046FCF715
:103C500023FF3946FDF728F820612846FCF71CFFB2
:103C60003946FDF721F860611420FDF721F905B010
:103C7000BDE8F08FAC000020A800002008B54FF48C
:103C8000827E0E480E4B4FF4007280E808400023FD
:103C900082618360C36003614361382203624362CF
:103CA00083620A23C261C362FEF7FEFE28B1BDE84B
:103CB000084045210348FFF7ADBE08BDF4030020CE
:103CC000003001403B42000810B50268164B86B038
:103CD0009A4226D103F560439A6902A942F48052C0
:103CE0009A619B69114803F480530193019BA023BF
:103CF00002930223039303230593FDF7AFFE4023B2
:103D000000240293012302A9084804930394FDF7B9
:103D1000A5FE232022462146FDF7EAFC2320FDF7DD
:103D20001BFD06B010BD00BF00300140000801407F
:103D3000254B07B59A69032042F001029A619A69FE
:103D400002F001020092009ADA6942F08052DA61D0
:103D5000DB6903F080530193019BFDF7B7FC002260
:103D60006FF00B001146FDF7C3FC00226FF00A0054
:103D70001146FDF7BDFC00226FF009001146FDF76A
:103D8000B7FC00226FF004001146FDF7B1FC0022E1
:103D90006FF003001146FDF7ABFC00226FF001004D
:103DA0001146FDF7A5FC00224FF0FF301146FDF74C
:103DB0009FFC064A536823F0E06343F000735360AE
:103DC00003B05DF804FB00BF00100240000001409A
:103DD0007047FEE7FEE7FEE7FEE770477047704773
:103DE00008B5FDF753F8BDE80840FDF7E4BC000056
:103DF0000148FDF79FBD00BFE40000200148FDF72A
:103E000097B800BFB40000200148FEF773BF00BFA1
:103E10008C040020FFF7F8BF0148FEF76BBF00BF1E
:103E2000CC0400200148FEF765BF00BF4C04002011
:103E30000148FEF7C9BD00BFF40300200F4B1A680C
:103E400042F001021A6059680D4A0A405A601A6825
:103E500022F0847222F480321A601A6822F48022DE
:103E60001A605A6822F4FE025A604FF41F029A60E8
:103E70004FF00062034B9A60704700BF0010024091
:103E80000000FFF800ED00E040F2E7333248334A2B
:103E900010B580E80C00002341F6FF028AB0836071
:103EA000C260036143618361FEF7FEFF18B14521E3
:103EB0002B48FFF7AFFD4FF480530AA941F8203D8E
:103EC0002548FEF738FE18B14B212548FFF7A2FD23
:103ED0002148FFF703F818B150212148FFF79AFD58
:103EE000002469461C4800940194FFF7FBF818B1C0
:103EF00057211B48FFF78EFD0123002206A9164813
:103F00000694079308940994FFF72CF818B16021E0
:103F10001348FFF77FFD042206A90F48FFF722F898
:103F200018B165210E48FFF775FD082206A90A4859
:103F3000FFF718F818B16A210948FFF76BFD0C224A
:103F400006A90548FFF70EF818B16F210448FFF7DE
:103F500061FD0AB010BD00BF8C040020002C0140A0
:103F6000604200084FF0804240F2E733224810B52B
:103F700080E80C00002341F6FF028AB08360C26033
:103F800003618361FEF790FF18B182211B48FFF7A0
:103F900041FD4FF480530AA941F8203D1648FEF731
:103FA000CAFD18B188211548FFF734FD1248FEF705
:103FB00095FF18B18D211148FFF72CFD00246946AB
:103FC0000D4800940194FFF78DF818B194210B4827
:103FD000FFF720FD0123002206A907480694079356
:103FE00008940994FEF7BEFF18B19D210348FFF71E
:103FF00011FD0AB010BD00BFCC04002060420008D3
:104000007FB54723174818494FF47A7280E80A00B1
:104010000023C260836003618361FEF745FF18B12E
:10402000AF211248FFF7F6FC4FF4805306A941F880
:10403000103D0C48FEF77FFD18B1B5210B48FFF786
:10404000E9FC20220023694606488DE80C00FFF7B2
:1040500049F818B1BC210548FFF7DCFC07B05DF852
:1040600004FB00BF4C040020000400406042000834
:1040700010B50368334A86B0934226D1324B0024F0
:104080009A6902A942F400629A619B692F4803F47D
:1040900000630093009B4FF4706302930123039429
:1040A0000493FDF7DBFC224621461920FDF720FB97
:1040B0001920FDF751FB1B2022462146FDF718FB76
:1040C0001B20FDF749FB06B010BDB3F1804F24D192
:1040D00003F50433DA69002442F00102DA61DB6996
:1040E00002A903F001030193019B4FF40043174819
:1040F000029303940494FDF7B1FC154A1C20536805
:10410000214623F4407343F0E06343F4807353602B
:104110002246FDF7EDFA1C20D3E70E4A9342D2D196
:10412000094B1D20DA6942F00202DA610022DB69E4
:10413000114603F002030293029BFDF7D9FA1D20FA
:10414000BFE700BF002C0140001002400008014002
:104150000000014000040040002103E00B4B5B58CD
:10416000435004310A480B4B42189A42F6D30A4A8C
:1041700002E0002342F8043B084B9A42F9D3FFF7D0
:104180005DFE00F00FF8FFF71DFB70477842000856
:10419000000000200C000020100000200C05002072
:1041A000FEE7000070B500250C4E0D4CA41BA410BA
:1041B000A54209D100F01AF800250A4E0A4CA41BAA
:1041C000A410A54205D170BD56F825309847013599
:1041D000EEE756F8253098470135F2E770420008BF
:1041E000704200087042000874420008F8B500BF31
:1041F000F8BC08BC9E467047F8B500BFF8BC08BCC8
:044200009E4670471F
:1042040002030405060708090A0B0C0D0E0F101013
:104214002E2E5C5372635C6164632E63002E2E5CED
:104224005372635C63616E2E63002E2E5C53726363
:104234005C6932632E63002E2E5C5372635C737070
:10424400692E630000000000000000000102030466
:104254000607080900000000010203042E2E5C5327
:0C42640072635C74696D2E630000000042
:04427000350100080C
:04427400110100082C
:0C427800010000001000000000A24A0439
:040000050800415955
:00000001FF
