:020000040800F2
:100000005807002001010008D3230008271D00081D
:10001000D123000811050008AB25000800000000EE
:10002000000000000000000000000000F7230008AE
:100030004B05000800000000F5230008F923000824
:100040001B0100081B0100081B0100081B01000820
:100050001B0100081B0100081B0100081B01000810
:100060001B0100081B0100081B0100081505000802
:100070001B0100081B0100081B0100081B010008F0
:100080001B0100081B0100081B0100081B010008E0
:100090001B0100081B0100081B0100081B010008D0
:1000A0001B0100081B0100081B0100081B010008C0
:1000B0001B010008C92400081B0100081B010008DF
:1000C0001B0100081B0100081B0100081B010008A0
:1000D0001B0100081B0100081B0100081B01000890
:1000E0001B0100081B0100081B010008DFF80CD0F1
:1000F00000F054F900480047D926000858070020AE
:100100000648804706480047FEE7FEE7FEE7FEE7B1
:10011000FEE7FEE7FEE7FEE7FEE7FEE781240008D4
:10012000ED000008202A04DB203A21FA02F0002129
:10013000704721FA02F3D040C2F1200291400843F7
:10014000194670472DE9F04D81EA030404F0004B95
:1001500021F0004514464FF0000A23F0004150EA18
:10016000050220D054EA01021DD0C5F30A57024609
:10017000C5F31303C1F31300C1F30A5640F480150D
:1001800043F48013A7EB0608101BD64608F2FD388F
:1001900073EB050002D308F1010801E092185B41FE
:1001A000B8F1000F03DA00200146BDE8F08D002011
:1001B0004FF48011064684460EE0171B73EB0507CB
:1001C00005D3121B63EB050306434CEA010C4908F7
:1001D0004FEA300092185B4150EA0107EDD152EA34
:1001E000030012D082EA040083EA0501084305D027
:1001F000101BAB4106D20122002306E000224FF083
:10020000004302E06FF0010253101AEB06004CEBC2
:10021000085110EB0A0041EB0B01BDE8F04D00F076
:1002200060B80EB540F2334102910021CDE90011D2
:100230000A460B4600F064F803B000BD01F000432D
:1002400030B421F0004150EA010206D00A0DA2F5B7
:100250006072C1F31301002A02DC30BC0020704739
:10026000440F44EAC104C100E01830BC00EBC250A6
:10027000AFF300800029A8BF7047401C490008BFA9
:1002800020F00100704710B4B0FA80FC00FA0CF0C6
:1002900050EA010404BF10BC704749B1CCF12004FE
:1002A00021FA04F411FA0CF118BF0121214308438B
:1002B000A3EB0C01CB1D4FEA00614FEA102042BFB7
:1002C000002010BC704700EBC35010440029A4BFAD
:1002D00010BC7047401C490008BF20F0010010BC52
:1002E000704710B5141E73F1000408DA401C41F188
:1002F000000192185B411A4301D120F0010010BDAA
:100300002DE9F04D92469B4611B1B1FA81F202E01F
:10031000B0FA80F22032904600F052F804460F46C0
:1003200040EA0A0041EA0B0153465A46084313D0FB
:10033000114653EA010019D0C8F140025046FFF7B8
:10034000F1FE05460E4650465946424600F038F842
:10035000084305D0012004E020463946BDE8F08D71
:100360000020054346EAE0762C4337430A986305AC
:10037000E40AA0EB08000022FD0A44EA47540A30D0
:1003800002D500200146E9E7010510196941DDE9C0
:10039000084500196941BDE8F04DA2E7064C074D3C
:1003A00006E0E06840F0010394E807009847103445
:1003B000AC42F6D3FFF79EFECC270008EC270008DE
:1003C000202A04DB203A00FA02F100207047914015
:1003D000C2F1200320FA03F3194390407047000054
:1003E00070B5044600688168C943C9071CD181689B
:1003F00021F00101816000F089FC05460FE000BF9B
:1004000000F084FC401B022809D9A06A40F01000CB
:10041000A062E06A40F00100E062012070BD206847
:100420008068C043C007EBD0002070BD10B5014606
:10043000406A826A12F0500F05D0006A026BBDE874
:10044000104008461047816A41F4007181620168DA
:100450008968C1F3424107290CD1C16851B9816A49
:1004600021F480718162816AC90403D4816A41F0F8
:100470000101816200F0E8F810BD10B5406A816AA0
:1004800041F040018162C16A41F00401C16200F0A3
:10049000DDF810BD10B5406A00F0D7F810BD0000BF
:1004A000F8B500260446009600688168C943C9076C
:1004B00028D0816841F00101816013481349006828
:1004C000B0FBF1F000E0401E00900028FBD100F0EE
:1004D0001DFC054611E000BF00F018FC401B02287F
:1004E0000BD9A06A40F01000A062E06A40F0010061
:1004F000E06284F824600120F8BD20688068C04371
:10050000C007E9D10020F8BD2800002040420F00BC
:10051000FEE70000014800F0F5B90000800000206F
:1005200030B590F840500124AC40C56B6C60046855
:1005300063604368102B036803D099600068C26051
:1005400030BD9A600068C16030BD7047F8B50024C6
:10055000009490F824202546012A12D0012280F828
:1005600024204A681F23072A0DD20668776B521E83
:1005700002EB820293409F430B6893401F437763D3
:1005800019E00220F8BD06680D2A0AD2376BD21F87
:1005900002EB820293409F430B6893401F433763F3
:1005A00009E0F76A0D3A02EB820293409F430B6821
:1005B00093401F43F7620A68072306680A2A0AD392
:1005C000F7680A3A02EB420293409F438B689340DC
:1005D0001F43F76008E0376902EB420293409F43F4
:1005E0008B6893401F4337610A68102A01D0112A93
:1005F00020D1124B02689A4217D193681B0219D47A
:10060000936843F4000393600968102912D10C49E0
:100610000C4A0968B1FBF2F101EB8101490000E0ED
:10062000491E00910029FBD104E0816A41F02001BC
:100630008162012480F824502046F8BD0024014046
:100640002800002040420F007047704770470000AC
:100650002DE9F0414FF0000704003D467ED0A06A2E
:10066000002628B9E66284F82460204600F07EF86F
:100670002046FFF7B5FEA16AC90600D420B1A06AE2
:1006800040F01000A06269E0A16A21F4885141F0B5
:100690000201A1626268E169E3680A4347EA430133
:1006A0000A43A1684FF48077B94209D0012907D0E5
:1006B0005FF00001D4F814C0BCF1010F02D00AE0D1
:1006C0003946F7E7F3B1A36A43F02003A362E36A74
:1006D00043F00103E3622368D3F804C02CF4694CAF
:1006E0004CEA010CC3F804C021688B68DFF870C0C5
:1006F00003EA0C0313438B60A168B9420BD00129B4
:1007000009D00CE0DFF85CC0A3690CEB43330B436A
:1007100043F40061DFE7218A0D05A5F58015216806
:10072000CB6A23F470032B43CB62216889680E4B9C
:100730001940914208D1E662A16A21F0020141F01C
:100740000101A162BDE8F081A06A20F0020040F042
:100750001000A062E06A40F00100E0620120F1E7D1
:10076000FDF7E1FF00E0FFFFFE0E1FFF30B505467D
:100770000068184985B088422AD11748816941F438
:10078000007181618069694600F4007004900F2057
:10079000009003200190114800F0DAF9114C104844
:1007A000206000206060A0608020E0604000206148
:1007B000800060612020A061C001E061204600F05F
:1007C0004BF918B1912108A001F0F0FE2C6265628E
:1007D00005B030BD00240140001002400008014077
:1007E00008000240800000202E2E2F5372632F61DC
:1007F00064632E63000000002DE9F047894604463B
:100800003B4900683B4F0E1D9046884201D0B842DC
:1008100007D1306810F4702F03D001252846BDE8B9
:10082000F08794F8240001280CD0012084F82400DB
:100830002046FFF735FE05004FF0000004D084F895
:100840002400EBE70220EAE7A16A40F60162914347
:1008500041F48071A1622168B94218D1326812F462
:10086000702F14D0A16A41F48011A162316849054A
:1008700005D5A16A21F4005141F48051A162A16A19
:10088000C9040AD5E16A21F00601E16206E0A26A24
:1008900022F48012A2624968E9E7E06284F8240049
:1008A000216A15488862216A1448C862216A14487E
:1008B000086321686FF0020008602068816841F4D5
:1008C00080718160216843464A464C31206A00F0BD
:1008D000F5F820688168C1F342410729816803D097
:1008E00041F48011816099E741F4A001FAE700002A
:1008F00000240140002801402D0400089504000850
:100900007B0400082DE9F05FC16B0C6801680B687F
:10091000D0F840C0042202FA0CF2494DDFF824A1BD
:10092000494E4A4FDFF828B1DFF828E122422CD0A7
:100930005A072AD50A68920603D40A6822F00402EC
:100940000A600168A94201D1042219E0514501D190
:10095000402215E0B14202D14FF4806210E0B9426A
:1009600002D14FF480420BE0594502D14FF480226E
:1009700006E0714502D14FF4800201E04FF0806241
:100980002F4908394A60C16A3BE04FF0020808FA73
:100990000CF818EA040F4FF000094FF0010235D0AF
:1009A0005FEA837832D50B689B0605D40B6823F089
:1009B0000A030B6080F821200168A94201D10222BC
:1009C00019E0514501D1202215E0B14202D14FF486
:1009D000007210E0B94202D14FF400520BE05945C9
:1009E00002D14FF4003206E0714502D14FF40012FB
:1009F00001E04FF00072124908394A6080F82090F7
:100A0000816A00291AD0BDE8F05F0847082505FA79
:100A10000CF5254212D01B0710D50B6823F00E03EE
:100A20000B6090F84010C36B02FA01F159608263C9
:100A300080F8212080F82090016BE2E7BDE8F09F6C
:100A4000080002401C000240300002404400024006
:100A5000580002406C00024030B548B308C8154940
:100A600014221944B1FBF2F18900C1631249816378
:100A7000022141771A6843F6F0718A43D0E90014E5
:100A80002143D0E902452C432143046921434469B1
:100A9000214384692143114319600021416281622D
:100AA000C16201634163012242770177084630BD8C
:100AB000012030BDF8FFFDBF0000024070B50446C4
:100AC00090F82000002501280CD0012084F8200097
:100AD00094F821600020012E06D084F82000022521
:100AE000284670BD022070BD022684F82160A063F4
:100AF0002068066826F0010606602046FFF710FD14
:100B0000E06A00282068016802D041F00E0106E08A
:100B100021F0040101602068016841F00A010160D0
:100B20002068016841F001010160D9E770B5044611
:100B300000F0ECF80546601C02D00448007804443C
:100B400000F0E4F8401BA042FAD370BD1C00002066
:100B50002DE9F84FDFF890A100220AF1040B1446AA
:100B600001274FF00F090BF1040E00BF0B6807FAC5
:100B700004F52B40AB4274D1DFF870C14E68A6EB90
:100B80000C0866452BD00DDC032E34D005DC36B3C3
:100B9000012E19D0022E2FD11BE0112E16D0122EAD
:100BA0002AD119E0B8F5881F19D006DCB8F5803FC6
:100BB00015D0B8F5801F1FD111E0B8F5001F0ED079
:100BC000B8F5041F18D10AE0CA6815E0CA68121DFA
:100BD00012E0CA6808320FE0CA680C320CE08A687A
:100BE0002AB1012A4FF0080203D0456104E0042233
:100BF00002E0056100E00022FF2B01D8064601E07B
:100C000000F104064FEA840501D9A5F12005D6F8C4
:100C100000C009FA05F82CEA080C02FA05F54CEABE
:100C2000050CC6F800C04D68ED0057D5304DAE69D3
:100C300046F00106AE61AD6924F0030605F001053A
:100C400000952C4D06EB050CDCF80850A6074FEA82
:100C5000167809FA08F6B543274EB04202D10026AD
:100C600010E03BE0254EB04201D101260AE0244EBF
:100C7000B04201D1022605E0224EB04201D1032646
:100C800000E0042606FA08F62E43CCF808604D680A
:100C9000DAF80060ED03554601D51E4300E09E439F
:100CA0002E604D68DBF80060AD035D4601D51E4344
:100CB00000E09E432E604D68DEF80060ED02754650
:100CC00001D51E4300E09E432E604D68AD020E4DDF
:100CD0002E6801D51E4300E09E432E60641C102C3C
:100CE000FFF444AFBDE8F88F00040140000011108C
:100CF000001002400000014000080140000C0140CB
:100D000000100140001401400C04014001488068BB
:100D1000704700001C00002070B504001BD094F840
:100D20003D00002520B984F83C50204600F038FAF8
:100D3000242084F83D002068016821F00101016051
:100D400000F036FC404A6168914201D83F4900E01A
:100D50003F49884201D2012070BD3E492368B0FB63
:100D6000F1F159606368934206D94FF49673594381
:100D70004FF47A73B1FBF3F12368491C196261687F
:100D8000914210D84900401EB0FBF1F2521CC2F350
:100D90000B02042A01D2042022E0B0FBF1F0401C37
:100DA000C0F30B001CE0A368CBB301EBC10202EB64
:100DB0000116421EB2FBF6F2521C42F480421205AA
:100DC00036D06BB301EBC10202EB0111401EB0FB48
:100DD000F1F0401CC0F30B0040F4804040F40040B0
:100DE0002168C861D4E90701084321680860D4E993
:100DF0000310084321688860D4E90501084321688D
:100E0000C8602068016841F001010160256420206C
:100E100084F83D00256384F83E50002070BD00E05A
:100E200008E001EB4106421EB2FBF6F2521CC6E797
:100E30000120D5E701EB4101401EB0FBF1F0401C61
:100E4000C0F30B00CAE70000A086010080841E00EA
:100E500000093D0040420F002DE9F84F1F46904623
:100E60008A460446DDF82890FFF750FF054694F8BF
:100E70003D0020287ED11923012278492046009583
:100E800001F047F80028F5D194F83C00012871D012
:100E9000012084F83C0020680168C90703D101687B
:100EA00041F0010101602068016821F400610160E6
:100EB000222084F83D00102084F83E00002626649D
:100EC000C4F8248067856648E062608D20852B46E3
:100ED0004A465146204600F03BFF28B1206C84F87A
:100EE0003C60042850D073E0208D5E4F68B101282B
:100EF00014D00228206801681ED041F4806101608E
:100F000020684169806900909AE0206841698169A0
:100F10000091016841F40071016091E0206801686E
:100F200021F48061016072B6206841698169009195
:100F3000016841F400710AE041F40061016072B699
:100F40002068416981690091016821F48061016034
:100F500062B675E0032850D801280CD002284B4611
:100F60004FF0000239462046009512D000F0D1FF24
:100F700070BB13E070E02A464946204601F03EF877
:100F800028B1206C202823D00120BDE8F88F2068EC
:100F90004BE000F0BEFFD8B972B61BE020680168D4
:100FA00021F48061016072B620680169606A421CA8
:100FB00062620170208D401E2085608D401E60851C
:100FC0004B46002239462046009500F0A2FF08B1AA
:100FD0000320DAE72068016841F4007101602068AD
:100FE0000169606A421C62620170208D401E20858A
:100FF000608D401E608562B6C9E72A464946204694
:1010000000F0FCFF0028BCD120680169606A421C26
:1010100062620170208D401E2085608D401E6085BB
:1010200020684169C94349070AD40169606A421CC2
:1010300062620170208D401E2085608D401E60859B
:10104000208D002886D1202084F83D0084F83E6061
:1010500084F83C60002098E7022096E70200100028
:101060000000FFFF040001002DE9F84F1F469046E5
:101070008A460446DDF82890FFF748FE064694F8B5
:101080003D0020287ED119230122434920460096A5
:1010900000F03FFF00287DD194F83C00012879D072
:1010A000012084F83C0020680168C90703D1016869
:1010B00041F0010101602068016821F400610160D4
:1010C000212084F83D00102084F83E00002525648E
:1010D000C4F8248067853148E062608D20853346FE
:1010E0004A465146204600F0A3FE28B1206C84F801
:1010F0003C5004284CD00DE0206841698069009084
:1011000030E032464946204600F0A9FF28B1206C65
:10111000042838D00320BDE8F88F606A411C616262
:10112000216800780861608D401E6085208D401E1A
:1011300080B2208521684A69D24352070BD450B14E
:10114000606A421C626200780861608D401E6085A2
:10115000208D401E208532464946204600F0B2FED2
:101160000028D4D1208D0028CBD154F83D0B016844
:1011700041F400710160202004F81E09E5776577CD
:101180000020C8E706E02068016841F400710160B2
:101190000120C0E70220BEE7020010000000FFFFB0
:1011A00000B500680C4985B0884213D14FF4406007
:1011B0000090122001900320039069460748FFF732
:1011C000C7FC0748C16941F48001C161C06900F4EE
:1011D0008000049005B000BD00580040000C0140A4
:1011E0000010024002488168027811448160704713
:1011F0001C000020074810B5016841F01001016093
:10120000032000F09DF8002000F006F800F024F81C
:10121000002010BD0020024070B50D4D04464FF473
:101220007A712878B1FBF0F00A490968B1FBF0F057
:1012300000F093FB48B9102C07D200222146501E23
:1012400000F05EF800206C6070BD012070BD0000F1
:101250001C00002028000020214808B5816941F0C9
:1012600001018161816901F001010091C16941F0D1
:101270008051C161C06900F080500090032000F0EF
:101280005FF8002211466FF00B0000F039F80022E1
:1012900011466FF00A0000F033F8002211466FF09B
:1012A000090000F02DF800221146501F00F028F828
:1012B00000221146101F00F023F800221146901E54
:1012C00000F01EF800221146501E00F019F80548E3
:1012D000416821F0E06141F00071416008BD00000B
:1012E000001002400000014000F01F020121914067
:1012F0004009800000F1E020C0F8001170470000B4
:10130000F0B40E4B1B680C46C3F30223C3F1070570
:10131000042D00D90425191D072901D2002300E05E
:10132000DB1E012606FA05F1491E214099409E4028
:10133000761E16403143F0BC01F04CB80CED00E0D5
:10134000064900F0070208684FF6FF03184040EA1C
:101350000220034A10430860704700000CED00E0D3
:101360000000FA052DE9F84305460078354CC00722
:1013700054D0E0690026C00008D4E06940F08050F5
:10138000E061E069012600F0805000902E4801687D
:10139000C90512D40168804641F480710160FFF7ED
:1013A000B5FC074605E000BFFFF7B0FCC01B642892
:1013B00023D8D8F80000C005F6D5206A10F4407094
:1013C00021D0A98801F4407181421CD0206A1F49B4
:1013D000012220F440700A6000220A602062C007E7
:1013E00011D0FFF793FC074641F2883808E000BFB0
:1013F000FFF78CFCC11B414502D90320BDE8F883EF
:10140000206A8007F4D5206A696820F44070084398
:1014100020621EB1E06920F08050E06128788007EA
:1014200005D56068A96820F44040084360602878CA
:10143000C00605D56068E96820F480000843606054
:101440000020DBE7001002400070004040044242F0
:101450002DE9F047DFF83C8105460E46D8F800003C
:1014600000F00700B0420CD2D8F8001021F00701BC
:101470003143C8F80010D8F8000000F00700B0426F
:1014800063D12878444C800705D56068A96820F0AE
:10149000F000084360602878C00745D068680128DC
:1014A00016D02168022816D0890700294DDA616814
:1014B00021F0030101436160FFF728FC69680746DA
:1014C00041F2883001290FD00229814619D027E046
:1014D00021688903E9E78901E7E700BFFFF716FC08
:1014E000C11B494501D918E081466068C0F38100FD
:1014F0000128F3D118E000BFFFF708FCC11B4945E4
:101500000BD86068C0F381000228F5D10CE000BF61
:10151000FFF7FCFBC11B494502D90320BDE8F0875A
:10152000606810F00C0FF3D1D8F80010404601F0BD
:101530000701B1420BD9016821F007013143016075
:10154000006800F00700B04201D00120E6E72878EB
:10155000400705D56068E96820F4E06008436060F2
:101560002878000706D56068296920F4605040EAB1
:10157000C100606000F02CF86168084AC1F30311F3
:10158000515CC840064908600020FFF745FE002076
:10159000C4E700000020024000100240B427000809
:1015A0002800002001480068704700002800002043
:1015B0000448054900684968044AC1F30221515CA6
:1015C000C84070472800002000100240C4270008CF
:1015D00012A185B00FC98DE80F0014A0144A00684D
:1015E00004905168134801F00C03042B10D0082B11
:1015F0000ED1C1F38343C9031DF803000AD5516816
:1016000004AAC1F34041515C0A4A5043B0FBF1F0D7
:1016100005B0704708494843FAE700000203040593
:10162000060708090A0B0C0D0E0F1010010200002E
:101630000010024000127A0000093D002DE9F84F29
:1016400004460078B94DC00748D06868C0F38100EF
:10165000012807D06868C0F38100022809D16868B2
:10166000C00306D52868800338D5606800286FD08D
:1016700034E06068B0F5803F0BD010B1B0F5A02F1A
:1016800011D0286820F480302860286820F4802059
:1016900002E0286840F480302860606888B1FFF775
:1016A00035FB064609E0286840F480202860F0E712
:1016B000FFF72CFB801B642875D828688003F7D5BA
:1016C0000CE0FFF723FB064605E000BFFFF71EFB1B
:1016D000801B6428F0D828688003F7D42078944EC3
:1016E00080074FF001094FF000083BD5686810F003
:1016F0000C0F07D06868C0F38100022809D1686820
:10170000C00306D42868800714D5206901281FD19A
:1017100010E02069B0B1C6F80090FFF7F7FA07466D
:1017200005E000BFFFF7F2FAC01B0228C4D8286802
:101730008007F7D52868616920F0F80040EAC10009
:1017400028600FE0C6F80080FFF7E0FA074606E0E1
:10175000E9E000BFFFF7DAFAC01B022823D82868A7
:101760008007F7D4207800072CD57248A169D9B139
:10177000C0F80090FFF7CAFA074604E0FFF7C6FA80
:10178000C01B02280FD8686A8007F7D56A484FF453
:10179000FA510068B0FBF1F0009000BF0098411EC4
:1017A0000091FAD20EE080E0C0F80080FFF7AEFAB8
:1017B000074604E0FFF7AAFAC01B022875D8686A3A
:1017C0008007F7D42078400760D5E8690027C0007B
:1017D00008D4E86940F08050E861E869012700F02A
:1017E0008050009055480168C90513D401688346AC
:1017F00041F480710160FFF789FA824606E000BF7C
:10180000FFF784FAA0EB0A0064284ED8DBF800004A
:10181000C005F5D5E06801280AD008B1052813D025
:10182000286A20F001002862286A20F0040002E003
:10183000286A40F001002862E06841F2883B98B1D4
:10184000FFF764FA82460BE0286A40F00400286241
:10185000EEE700BFFFF75AFAA0EB0A0159455AD844
:10186000286A8007F6D50CE0FFF750FA824605E0BB
:10187000FFF74CFAA0EB0A0159454CD8286A8007BB
:10188000F6D41FB1E86920F08050E861E06988B3C0
:101890006968C1F38101022945D00228C6F8608039
:1018A00004D0FFF733FA044638E034E0FFF72EFAAD
:1018B000074604E0FFF72AFAC01B02282BD8286845
:1018C0008001F7D4206AB0F5803F05D16868A1682F
:1018D00020F4003008436860D4E9080108436968CF
:1018E00021F4741108436860C6F86090FFF70EFA9F
:1018F000044606E015E000BFFFF708FA001B0228C7
:1019000009D828688001F7D50BE000BFFFF7FEF982
:10191000001B022802D90320BDE8F88F2868800147
:10192000F4D40020F8E70120F6E7000000100240A0
:101930000000424280044242280000200070004023
:101940004FF0E0210428086903D020F0040008616A
:10195000704740F00400FAE7704710B5401EB0F140
:10196000807F01D3012010BD4FF0E02460610F2182
:10197000601700F02FFD0020A061072020610020EB
:1019800010BD10B5FFF7E8FF10BD7047704730B5C8
:1019900090F83C20012A20D0012280F83C2002232C
:1019A00080F83D3003685C6824F070045C60036874
:1019B0005C680D682C435C6003689C6824F08004BC
:1019C0009C6003689C6849680C439C6080F83D20DB
:1019D000002180F83C10084630BD022030BD10B513
:1019E000040003D094F83D0010B107E0012010BDC1
:1019F000002084F83C00204600F00CF8022084F817
:101A00003D00211D206800F065FD012084F83D00A7
:101A1000002010BD08B500680B49884212D10B4860
:101A2000C16941F00201C161C069002200F00200F9
:101A3000009011461D20FFF763FCBDE808401D2003
:101A4000FFF752BC08BD0000000400400010024037
:101A50000168CA6842F00102CA600068016841F08A
:101A6000010101600020704770B5044690F83C0009
:101A7000012817D0012584F83C50022084F83D004D
:101A80002068826822F0770222F47F428260086830
:101A9000502837D00DDC202859D005DC88B3102819
:101AA00041D151E0022070BD302853D040283AD1B6
:101AB0003FE060282ED070280BD0B0F5805F03D0B7
:101AC000B0F5005F2FD110E02068816821F0070198
:101AD00015E0CB68D1E90121206800F031FD2168D3
:101AE000886840F0770088601DE0CB68D1E901216B
:101AF000206800F025FD2068816841F48041816004
:101B000011E01EE0CA684968206800F02BFD5021F2
:101B1000206806E0CA684968206800F034FD60214A
:101B2000206800F017FD84F83D50002084F83C0048
:101B300070BDCA684968206800F014FD4021206823
:101B4000EFE700212068ECE710212068E9E7202179
:101B50002068E6E730212068E3E7704770B5044667
:101B6000006801694FF00005C943890715D4C168B1
:101B7000C943890711D4E91E01610120207720683B
:101B800080698007204602D0FFF7E7FF04E000F0FD
:101B900098F8204600F096F8257720680169C94337
:101BA000490717D4C168C943490713D46FF004012A
:101BB0000161022020772068806910F4407F204670
:101BC00002D0FFF7CAFF04E000F07BF8204600F0E7
:101BD00079F8257720680169C943090716D4C168D7
:101BE000C943090712D46FF008010161042020776E
:101BF0002068C0698007204602D0FFF7AEFF04E0EE
:101C000000F05FF8204600F05DF825772068016954
:101C1000C943C90617D4C168C943C90613D46FF0B4
:101C200010010161082020772068C06910F4407F0E
:101C3000204602D0FFF791FF04E000F042F8204672
:101C400000F040F8257720680169C943C90708D129
:101C5000C168C943C90704D1891E0161204600F04B
:101C600033F820680169C943090609D4C168C9432A
:101C7000090605D46FF0800101612046FFF785FE5B
:101C800020680169C943490609D4C168C9434906A6
:101C900005D46FF040010161204600F043F8206850
:101CA0000169C94389060BD4C168C943890607D4B1
:101CB0006FF0200101612046BDE87040FFF766BE6D
:101CC00070BD7047704700002DE9F0410068114970
:101CD00088421CD1104C0020DFF84080104F20704B
:101CE00004F11406C5B236F81500C0EB0010400030
:101CF000FEF797FA00224346FEF724FAFEF79EFA13
:101D000047F825006D1CE8B220700428EAD3BDE82E
:101D1000F0810000000400400000002000FEAF4001
:101D2000340000207047FEE701684A69D24352053B
:101D30000CD46FF480624A6104210164002140F8F0
:101D4000301F20224273017301207047002070472A
:101D50002DE9F84F0446C06A1E4692460D4621689A
:101D60000A6842F480620A60042807D0012805D07E
:101D700010F5803F02D0206B112804D12068016843
:101D800041F4807101604FF0011853460022414632
:101D90002046009600F0BDF8B8BB206908F10109A3
:101DA000B0F5804F12D00620216800EAD51747F021
:101DB000F00008613346524608F10701204600F062
:101DC000D9F838B1206C04282FD01EE0E8B240F0DA
:101DD00001001FE02168E8B20861334652464946D7
:101DE000204600F0C7F80028ECD1206841698169DD
:101DF0000091016841F48071016053460022414620
:101E00002046009600F085F810B10320BDE8F88F59
:101E100047F0F100216808613346524649462046A2
:101E200000F0A8F80028CDD1F0E70120EEE700008F
:101E3000F8B50446C06A1E460D461746042807D06A
:101E4000012805D010F5803F02D0206B122804D164
:101E50002068016841F480710160134600224FF050
:101E600001112046009600F054F8A0B92069B0F5A1
:101E7000804F12D00620216800EAD51040F0F00013
:101E8000086133463A460E49204600F073F838B1EF
:101E9000206C042811D00320F8BD05F0FE0000E0FE
:101EA000E8B221680861064933463A46891F204650
:101EB00000F060F80028EBD1F8BD0120F8BD00006B
:101EC0000800010070B516460D4604461AE020468B
:101ED000FFF72AFF08B1012070BD681C12D025B1A0
:101EE000FEF714FF801BA8420CD954F8400F40F0B5
:101EF000200044F810090020206020216173207325
:101F0000032070BD20684069C0434007DFD4002033
:101F100070BD2DE9F0471E4690460D460446C1F3BC
:101F20000747DDF8209012E0701C10D02EB1FEF7AC
:101F3000EDFEA0EB0900B04209D9002044F8300FB3
:101F400020216173A07320730320BDE8F08720680F
:101F5000012F0AD0806925EA00000004000C06D099
:101F600000214145E0D00020EFE74069F3E701217F
:101F7000F7E700002DE9F0479A4691460D460446E2
:101F800000264FF02008C1F307472AE02068406987
:101F9000C043400512D42068016841F4007101601B
:101FA00021686FF48060486104202064266384F80F
:101FB0003D8084F83C600120BDE8F087B9F1FF3F27
:101FC0000FD0B9F1000F05D0FEF7A0FEA0EB0A017B
:101FD000494506D944F8306F84F80D8026730320F4
:101FE000EAE72068012F07D0D0F8180025EA0000A2
:101FF0000004000CE0D0C9E74069F7E72DE9F041A3
:10200000002590460E460446202721E04069C04343
:10201000C0060CD421686FF0100048612564256368
:1020200084F83D7084F83C500120BDE8F0812EB169
:10203000FEF76CFEA0EB0800B04209D954F8400F3F
:1020400040F0200044F80409677025700320ECE795
:1020500020684169C9434906D8D40020E5E770B536
:1020600016460D4604461AE02046FFF75DFE08B10D
:10207000012070BD681C12D025B1FEF747FE801B01
:10208000A8420CD954F8400F40F0200044F8100941
:1020900000202060202161732073032070BD206820
:1020A0004069C0430006DFD4002070BD2DE9FC4725
:1020B00081466B208DF8040000201D4616460A9FBD
:1020C0008DF805004FF47A748846022301AA484629
:1020D0000094FEF7C9FF1B208DF804008DF8056001
:1020E000022301AA414648460094FEF7BDFF1C208A
:1020F0008DF804008DF80550022301AA4146484698
:102100000094FEF7B1FF19208DF804008DF80570DA
:10211000022301AA414648460094FEF7A5FFBDE808
:10212000FC872DE9FE438046432014468DF80400C9
:102130004FF47A750F46012301AA40460095FEF739
:1021400093FF01AE062339464046721C0095FEF708
:1021500083FE9DF805009DF8061041EA00202080CE
:102160009DF807009DF8081041EA002060809DF866
:1021700009009DF80A1041EA0020A0801420FEF713
:10218000D5FC3B208DF80400012301AA39464046C6
:102190000095FEF769FF0623721C394640460095FC
:1021A000FEF75AFE9DF805009DF8061041EA002052
:1021B000E0809DF807009DF8081041EA002020818A
:1021C0009DF809009DF80A1041EA00206081142062
:1021D000FEF7ACFCBDE8FE83FEB52448224900248E
:1021E00001608915C0E90214446104250561C90232
:1021F0004460C161FEF72CFA18B145211CA000F023
:10220000D5F90126CDE90046694618480294FEF743
:102210009DF918B14F2116A000F0C8F90224CDE9AC
:10222000006469461148FEF791F918B1582110A0D1
:1022300000F0BCF90094032469460C480194FEF7B1
:1022400085F918B161210AA000F0B0F96946074884
:10225000CDE90045FEF77AF9002803D06A2104A0F1
:1022600000F0A4F9FEBD0000002401405000002051
:102270002E2E2F5372632F6164632E6300000000C3
:10228000094808B5416941F00101416140690022F6
:1022900000F00100009011460B20FFF731F8BDE877
:1022A00008400B20FFF720B800100240134800B58B
:1022B000816985B041F020018161816901F02001CF
:1022C0000491816941F004018161816901F0040197
:1022D0000491816941F0080181618069694600F0DB
:1022E0000800049040F2FF3000900020019002901E
:1022F0000348FEF72DFC05B000BD000000100240B1
:10230000000C01400E4810B50C4901600D494160B8
:1023100000214FF480428160C0E903124161816174
:10232000C1610162FEF7F8FC002805D0BDE810404D
:10233000422105A000F03AB910BD0000005800404D
:10234000C4000020801A06002E2E2F5372632F69BE
:1023500032632E630000000010B5184886B016499D
:10236000016047210024C0E901144FF47A71C0E9EB
:1023700003148461FFF733FB18B13F2110A000F074
:1023800015F94FF48050009069460C48FFF76CFB3C
:1023900018B145210AA000F009F92020CDE9040474
:1023A00004A90648FFF7F3FA002803D04C2104A043
:1023B00000F0FCF806B010BD000400401801002039
:1023C0002E2E2F5372632F74696D2E630000000050
:1023D000FEE770470907090E002806DA00F00F0033
:1023E00000F1E02080F8141D704700F1E02080F833
:1023F000001470477047704710B5FEF7F3FEBDE854
:102400001040FFF7BEBA30B593B001210804CDE902
:1024100000100025029502240491CDE907404FF4F5
:10242000E01009906846FFF709F900B1FEE70AA934
:102430000F2081E831004FF48060CDE90D050221C5
:102440000AA8FFF705F800B1FEE74FF4004011902D
:102450000F940FA8FEF786FF00B1FEE7FFF7A2F882
:102460004FF47A71B0FBF1F0FFF777FA0420FFF731
:1024700067FA00221146501EFEF742FF13B030BD2E
:102480000D48016841F00101016041680B4A1140AB
:10249000416001680A4A11400160016821F480210D
:1024A0000160416821F4FE0141604FF41F01816029
:1024B0000449C00308607047001002400000FFF8A4
:1024C000FFFFF6FE08ED00E00148FFF747BB000004
:1024D00018010020F0B50268164B174C174D4FF04D
:1024E0008047984205D0B84203D0A04201D0A8420C
:1024F00003D122F070064A683243984205D0B842B0
:1025000003D0A04201D0A84203D122F44074CA688B
:10251000224322F080044A69224302608A68C26230
:102520000A688262984201D109690163012141610F
:10253000F0BD0000002C01400004004000080040F5
:1025400010B5846842EA032224F47F440A432243FC
:10255000826010BD826822F070020A4342F00701D7
:102560008160704710B5036A046A24F001040462B4
:10257000846924F0F00444EA021423F00A020A43B6
:102580008461026210BD10B5036A23F01003036278
:102590008369046A23F4704343EA023224F0A003FF
:1025A00043EA01118261016210BDFEE7FEE702E02D
:1025B00008C8121F08C1002AFAD1704770470020CE
:1025C00001E001C1121F002AFBD1704710B500289D
:1025D00021D0114B0022001F196803E0814203D86B
:1025E0000A4649680029F9D152B11368841A9C42FD
:1025F00004D1006818441060104602E0506000E00A
:10260000186039B102680B1A934203D10B681A445F
:1026100002604968416010BD2C0000202DE9F041A6
:1026200004468F000D46384600F08EF806463846C0
:1026300000F08AF8014600200A220BE0B4FBF2F316
:1026400002FB1343B4FBF2F42F1A06EB8707401C7E
:1026500047F8043CA842F1DB306808600120002400
:1026600002460BE056F82030002B01EB800353F8B4
:10267000043C09D05BB141F82040401CA842F1DB8A
:102680000D4A002014610AE041F82030F5E741F8D6
:102690002020F2E7630051F820401C43401CA84270
:1026A000F8DB08461461FFF791FF3046FFF78EFF15
:1026B0002046BDE8F08100000000002004480068CA
:1026C0000449C86000F0113048608860704700001D
:1026D000080C01400000002008B5FEF78BFDFFF755
:1026E00092FEFFF7E3FDFFF7CBFDFFF775FDFFF768
:1026F00033FEFFF707FE0F48FFF7AAF904220E4941
:102700000E48FEF779F80020034602460090D021DB
:102710000B48FFF7CBFC084C143C0A4AD021084870
:10272000FFF7FFFCFFF7CAFF0A216068FFF776FF9B
:10273000F3E70000180100201400002050000020E2
:10274000C400002044000020F0B50B30154D20F0EF
:1027500007010024144A0FE003688B420BD38B421D
:1027600005D95E1A43184768C3E9006700E043686B
:10277000136002C004E0021D10680028ECD120465E
:10278000002802D1286808B10020F0BD064A074899
:102790001060074A121A22F00702C0E90024012043
:1027A0002860D7E7300000202C0000205C010020CA
:1027B0005803002000000000000000000102030494
:1027C000060708090000000001020304EC270008C6
:1027D0000000002034000000AE250008202800087A
:1027E0003400002024070000BE250008000000007F
:1027F00000000000000000000000000000000000D9
:1028000000000000000000000100000010000000B7
:102810000000000000A24A040000000000000000C8
:04000005080000ED02
:00000001FF
